:020000040800F2
:100000001004002001010008510C00084D0C0008EC
:100010004F0C0008B106000855130008000000004E
:10002000000000000000000000000000010E0008B9
:10003000B3060008000000003D0D0008AD0E0008EA
:100040001B0100081B0100081B0100081B01000820
:100050001B0100081B0100081B0100081B01000810
:100060001B0100081B0100081B0100081B01000800
:100070001B0100081B0100081B0100081B010008F0
:100080001B0100081B0100081B0100081B010008E0
:100090001B0100081B0100081B0100081B010008D0
:1000A0001B0100081B0100081B0100081B010008C0
:1000B0001B010008010F00081B0100081B010008BC
:1000C0001B0100081B0100081B0100081B010008A0
:1000D0001B0100081B0100081B0100081B01000890
:1000E0001B0100081B0100081B010008DFF80CD0F1
:1000F00000F02EF800480047C51500081004002045
:100100000648804706480047FEE7FEE7FEE7FEE7B1
:10011000FEE7FEE7FEE7FEE7FEE7FEE7B10E0008BA
:10012000ED00000830B50B460146002020220124D6
:1001300009E021FA02F59D4205D303FA02F5491BB5
:1001400004FA02F52844151EA2F10102F1DC30BDCB
:10015000064C074D06E0E06840F0010394E8070014
:1001600098471034AC42F6D3FFF7C4FFB41600082A
:10017000D416000810B586B000214FF46020CDE9F8
:1001800002018DF804100120144C00918DF8051027
:100190008DF810006946204600F0C8F807230122B8
:1001A0000021204600F062F90121204600F018F8F5
:1001B000204600F0FFF9204600F090F80028FAD120
:1001C000204600F04FFA204600F03CF80028FAD113
:1001D0000121204600F014FA06B010BD00240140B1
:1001E00070B504460F480D4684420AD00E4884423A
:1001F00007D00E48844204D04FF497710CA001F050
:10020000A7F955B1012D04D040F22F1108A001F03B
:100210009FF9A06840F0010002E0A06820F0010012
:10022000A06070BD0024014000280140003C014056
:100230007372635C73746D3332663130785F6164FE
:10024000632E630070B504460A48002584420AD034
:100250000948844207D00948844204D04FF4D97138
:1002600007A001F075F9A068400700D501252846D0
:1002700070BD00000024014000280140003C014006
:100280007372635C73746D3332663130785F6164AE
:10029000632E630010B50446084884420AD008481B
:1002A000844207D00748844204D040F2C72106A008
:1002B00001F04EF9E06C80B210BD00000024014056
:1002C00000280140003C01407372635C73746D331D
:1002D00032663130785F6164632E630070B5044626
:1002E0000A48002584420AD00948844207D00948B8
:1002F000844204D04FF4C67107A001F029F9A06828
:10030000000700D50125284670BD000000240140EB
:1003100000280140003C01407372635C73746D33CC
:1003200032663130785F6164632E63002DE9F047F7
:10033000054644480C46854209D04348854206D0CC
:100340004248854203D0DF2141A001F001F94FF47A
:100350000036206877004FF4C0284FF40029D0B150
:10036000B0F5803F17D0B04215D0B0F5403F12D065
:10037000B84210D0B0F5A02F0DD040450BD0B0F54D
:10038000E02F08D0484506D0B0F5102F03D0E0216B
:100390002FA001F0DDF8207928B1012803D0E12158
:1003A0002BA001F0D5F8607928B1012803D0E22113
:1003B00027A001F0CDF8A068A0B1B04212D0B84299
:1003C00010D040450ED048450CD0B0F5202F09D0B4
:1003D000B0F5402F06D0B0F5602F03D0E3211CA06C
:1003E00001F0B6F8E06830B1B0F5006F03D0E42159
:1003F00017A001F0ADF8207C401E0F2803D9E5219D
:1004000013A001F0A5F86868164922790840216810
:1004100040EA022001436960A86813490840D4E912
:1004200002211143627940EA42000143A960E86A6F
:10043000217C20F47000491EC9B240EA0150E862F4
:10044000BDE8F0870024014000280140003C014045
:100450007372635C73746D3332663130785F6164DC
:10046000632E6300FFFEF0FFFDF7F1FF2DE9F04181
:10047000054648481E4617460C4685420AD046485F
:10048000854207D04548854204D040F2522144A01D
:1004900001F05EF834B3012C24D0022C22D0032CBE
:1004A00020D0042C1ED0052C1CD0062C1AD0072CD2
:1004B00018D0082C16D0092C14D00A2C12D00B2CD2
:1004C00010D00C2C0ED00D2C0CD00E2C0AD00F2CD2
:1004D00008D0102C06D0112C04D040F2532130A0AB
:1004E00001F036F8A7F10108B8F10F0F04D94FF465
:1004F00015712BA001F02CF896B1012E10D0022E10
:100500000ED0032E0CD0042E0AD0052E08D0062EB5
:1005100006D0072E04D040F2552121A001F018F892
:100520000722092C0AD9E968A4F10A0000EB40006F
:100530008240914386403143E96007E0296904EB3A
:100540004400824091438640314329611F21072F97
:1005500009D26A6B08EB880081408A4384402243B9
:100560006A63BDE8F0810D2F09D22A6BFF1F07EBEC
:10057000870081408A43844022432A63F1E7EA6A84
:100580000D3F07EB870081408A4384402243EA62A3
:10059000E7E700000024014000280140003C014042
:1005A0007372635C73746D3332663130785F61648B
:1005B000632E630010B50446094884420AD00948F6
:1005C000844207D00848844204D04FF4BF7107A08A
:1005D00000F0BEFFA06840F00800A06010BD000061
:1005E0000024014000280140003C01407372635C1C
:1005F00073746D3332663130785F6164632E6300EB
:1006000070B504460F480D4684420AD00E48844215
:1006100007D00E48844204D04FF4E6710CA000F0DD
:1006200097FF55B1012D04D040F2CD1108A000F084
:100630008FFFA06840F4A00002E0A06820F4A000B2
:10064000A06070BD0024014000280140003C014032
:100650007372635C73746D3332663130785F6164DA
:10066000632E630010B50446094884420AD0094845
:10067000844207D00848844204D04FF4D27107A0C6
:1006800000F066FFA06840F00400A06010BD00000C
:100690000024014000280140003C01407372635C6B
:1006A00073746D3332663130785F6164632E63003A
:1006B000FEE7704708B50120ADF8000000208DF876
:1006C000030003208DF802006946044800F02EF86C
:1006D0000121034800F0D4F808BD000000080140E3
:1006E0000002300038B548208DF8030003248DF84F
:1006F000024002200B4DADF800006946284600F08C
:1007000015F810218DF803108DF802400420ADF883
:1007100000006946284600F009F80121024800F06F
:10072000AFF838BD00080140000230002DE9F0416B
:100730000446464800260D46844215D0444884426B
:1007400012D0444884420FD0434884420CD04348DE
:10075000844209D04248844206D04248844203D0B1
:10076000B22141A000F0F4FEE87888B104280FD04F
:1007700028280DD048280BD0142809D0102807D0DD
:100780001C2805D0182803D0B32137A000F0E0FEC4
:10079000288818B9B42134A000F0DAFEE87800F017
:1007A0000F07C0060CD5A878012807D0022805D06D
:1007B000032803D0BB212CA000F0CAFEA878074371
:1007C00028784FF00F0C10F0FF0F4FF0010E1BD0E8
:1007D00021682A880EFA06F00240824210D1B20047
:1007E0000CFA02F321EA030307FA02F1EA7819434B
:1007F000282A02D0482A02D002E0606100E020618D
:10080000761C082EE5D321602888FF281CD9616852
:10081000002000F108030EFA03F22B8813409342E4
:100820000ED183000CFA03F6B14307FA03F6EB7816
:100830003143282B00D16261EB78482B00D1226133
:10084000401C0828E5D36160BDE8F0810008014044
:10085000000C01400010014000140140001801404C
:10086000001C0140002001407372635C73746D339F
:1008700032663130785F6770696F2E630000000068
:100880002DE9F0410D46044601287DD0022C7BD095
:10089000042C79D0082C77D0A4F5A010103873D090
:1008A000A4F5A01030386FD0A4F5B01040386BD04C
:1008B000A4F5B010C0387DD0574884427AD057484C
:1008C000844277D05648844274D05648844271D0CE
:1008D000554884426ED0B4F5805F6BD0B4F5EA1F02
:1008E00068D0B4F5EB1F65D0B4F5004F62D06FF45B
:1008F0000010C4425ED0A4F50010801E5AD0A4F5AA
:100900000010001F56D0A4F50010083852D0A4F5EE
:10091000001010384ED0B4F1201F4BD0A4F50010B9
:10092000403847D04148844244D04148844241D075
:10093000404884423ED0404884423BD03F488442B5
:1009400038D0B4F5011F35D06FF00040C44231D02B
:10095000C01C84422ED0801C84422BD0001D8442B7
:1009600028D03748844225D035481030844221D0E1
:100970003348303084421DD031487030844219D021
:100980002F48F030844200E014E013D02D48844218
:1009900010D02D4884420DD02C4884420AD02C48D7
:1009A000844207D02B48844204D040F22A212AA056
:1009B00000F0CEFD35B1012D04D040F22B2126A050
:1009C00000F0C6FD2A49002C01DACA6900E04A6835
:1009D000630D1E01A3B2C4F30157B340C4F3034037
:1009E000032F05D0E6020AD503268640B24307E06E
:1009F00022F070604A6822F070624A6002E09A4316
:100A000042F0706005B11843002C02DAC861BDE8FD
:100A1000F0814860FBE700000001180000021800A8
:100A20000003180000081A00000C1A000001300032
:100A300000023000000430000011200000202000DF
:100A40001000008000020080000400800008008088
:100A500000100080002000807372635C73746D333B
:100A600032663130785F6770696F2E630000000076
:100A70000000014070B50546274800260C46854217
:100A800016D02648854213D02548854210D02548E7
:100A900085420DD0244885420AD02448854207D09B
:100AA0002348854204D04FF48F7122A000F050FDFE
:100AB000012C2AD0022C28D0042C26D0082C24D09B
:100AC000102C22D0202C20D0402C1ED0802C1CD0CA
:100AD000B4F5807F19D0B4F5007F16D0B4F5806FDF
:100AE00013D0B4F5006F10D0B4F5805F0DD0B4F51D
:100AF000005F0AD0B4F5804F07D0B4F5004F04D0A2
:100B000040F21F110BA000F023FDA868204200D086
:100B10000126304670BD000000080140000C014075
:100B2000001001400014014000180140001C014069
:100B3000002001407372635C73746D333266313030
:100B4000785F6770696F2E630000000070B504461F
:100B500011480D46844216D01048844213D01048E4
:100B6000844210D00F4884420DD00F4884420AD0EE
:100B70000E48844207D00E48844204D040F27911D6
:100B80000CA000F0E5FC25B94FF4BD7109A000F000
:100B9000DFFC656170BD000000080140000C0140F1
:100BA000001001400014014000180140001C0140E9
:100BB000002001407372635C73746D3332663130B0
:100BC000785F6770696F2E630000000070B504469F
:100BD00011480D46844216D01048844213D0104864
:100BE000844210D00F4884420DD00F4884420AD06E
:100BF0000E48844207D00E48844204D040F2691166
:100C00000CA000F0A5FC25B94FF4B57109A000F0C7
:100C10009FFC256170BD000000080140000C0140F0
:100C2000001001400014014000180140001C014068
:100C3000002001407372635C73746D33326631302F
:100C4000785F6770696F2E6300000000FEE7FEE7C3
:100C50007047000070B50446C0780F2528B1012800
:100C600003D075211FA000F073FC6078102803D317
:100C700076211CA000F06CFCA078102803D377210B
:100C800018A000F065FCE0780122F8B1184800686F
:100C9000617800F4E060C0F5E060000AC0F1040390
:100CA000C540A0789940284008432178000101F10F
:100CB000E02181F80004207800F01F018A404009FB
:100CC000800000F1E020C0F8002170BD207800F025
:100CD0001F018A404009800000F1E020C0F8802117
:100CE00070BD00007372635C6D6973632E630000F6
:100CF0000CED00E010B50446B0F5E06F0FD0B4F590
:100D0000C06F0CD0B4F5A06F09D0B4F5806F06D0D9
:100D1000B4F5407F03D0632103A000F019FC05481F
:100D200004430548046010BD7372635C6D697363AE
:100D30002E6300000000FA050CED00E07047000093
:100D400070B504460C480D46044200D124B940F267
:100D500069410AA000F0FCFB0D4E4DB1012D04D0FD
:100D600040F26A4105A000F0F3FBF069204301E086
:100D7000F069A043F06170BD003601817372635C5D
:100D800073746D3332663130785F7263632E630043
:100D90000010024070B504460C480D46044200D1D4
:100DA00024B940F24A410AA000F0D2FB0D4E4DB1E9
:100DB000012D04D040F24B4105A000F0C9FBB06901
:100DC000204301E0B069A043B06170BD0200C0FFE4
:100DD0007372635C73746D3332663130785F726343
:100DE000632E63000010024010B5012140F205207F
:100DF000FFF7D0FF0121BDE810400620FFF7A0BF9C
:100E0000704700000CB5002226480092019201684C
:100E100041F4803101604FF4A063016801F40031B6
:100E200001910099491C0091019911B900999942C9
:100E3000F3D10168890333D5012101911A490A6868
:100E400042F010020A600A6822F003020A600A688F
:100E500042F002020A6041684160416841604168B5
:100E600041F480614160416821F47C114160416836
:100E700041F4E8114160016841F08071016001684E
:100E80008901FCD5416821F003014160416841F0CE
:100E9000020141604168C1F381010229FAD10CBD10
:100EA00001920CBD0010024000200240704700007B
:100EB0000F4810B5016841F00101016041680D4A19
:100EC0001140416001680C4A11400160016821F441
:100ED00080210160416821F4FE0141604FF41F014F
:100EE0008160FFF78FFF05494FF00060086010BD7B
:100EF000001002400000FFF8FFFFF6FE08ED00E0E2
:100F000010B50121044800F00BF8BDE810400121A4
:100F10000248FFF775BB00000004004000240140B8
:100F200070B5044621480D46844234D0B4F1804F58
:100F300031D01F4884422ED01E4884422BD01E48F8
:100F4000844228D01D48844225D01D48844222D0A6
:100F50001C4884421FD01C4884421CD01B48844239
:100F600019D01B48844216D01A48844213D01A481C
:100F7000844210D0194884420DD0194884420AD0C6
:100F80001848844207D01848844204D040F677219C
:100F900016A000F0DDFA280A00D125B940F6782124
:100FA00012A000F0D5FAE843208270BD002C014069
:100FB0000004004000080040000C00400010004009
:100FC0000014004000340140004C0140005001403A
:100FD0000054014000180040001C00400020004068
:100FE0000040014000440140004801407372635CCE
:100FF00073746D3332663130785F74696D2E6300BF
:1010000070B5044624480D46844234D0B4F1804F74
:1010100031D0224884422ED0214884422BD021480E
:10102000844228D02048844225D02048844222D0BF
:101030001F4884421FD01F4884421CD01E4884424F
:1010400019D01E48844216D01D48844213D01D4832
:10105000844210D01C4884420DD01C4884420AD0DF
:101060001B48844207D01B48844204D040F22931F7
:1010700019A000F06DFA55B1012D04D040F22A31CB
:1010800015A000F065FA208840F0010002E02088F9
:1010900020F00100208070BD002C014000040040C1
:1010A00000080040000C0040001000400014004008
:1010B00000340140004C0140005001400054014008
:1010C00000180040001C004000200040004001408B
:1010D00000440140004801407372635C73746D33D7
:1010E00032663130785F74696D2E630070B50446E6
:1010F000284816460D46844234D0B4F1804F31D092
:10110000254884422ED0254884422BD0244884424E
:1011100028D02448844225D02348844222D0234822
:1011200084421FD0224884421CD02248844219D0D5
:101130002148844216D02148844213D0204884425A
:1011400010D0204884420DD01F4884420AD01F4846
:10115000844207D01E48844204D040F26B311DA067
:1011600000F0F6F9280A00D125B94FF45B7119A0F7
:1011700000F0EEF94EB1012E04D040F26D3115A011
:1011800000F0E6F9A089284301E0A089A843A081E6
:1011900070BD0000002C0140000400400008004029
:1011A000000C0040001000400014004000340140DA
:1011B000004C014000500140005401400018004024
:1011C000001C00400020004000400140004401405D
:1011D000004801407372635C73746D333266313062
:1011E000785F74696D2E63002DE9F05F444FDFF87E
:1011F0001481DFF81491DFF814A1DFF814B1454E23
:101200000D460446B8422ED0B4F1804F2BD0444551
:1012100029D04C4527D0544525D05C4523D03E48A5
:10122000844220D0B4421ED03C4884421BD03C486B
:10123000844218D03B48844215D03B48844212D0A7
:101240003A4884420FD03A4884420CD0394884420C
:1012500009D03948844206D03848844203D0E72177
:1012600037A000F075F9688858B1102809D02028F7
:1012700007D0402805D0602803D0E82130A000F036
:1012800067F9E88848B1B0F5807F06D0B0F5007FF7
:1012900003D0E9212AA000F05BF92088BC420AD0E3
:1012A000B44208D0B4F1804F05D0444503D04C453A
:1012B00001D0544503D120F07001688808435C4593
:1012C00006D015498C4203D020F44071E8880843C9
:1012D0002080A888A08528882085BC420AD0B442F6
:1012E00008D01448844205D01348844202D01348E1
:1012F000844201D1287A20860120A082BDE8F09F97
:10130000002C01400004004000080040000C004098
:10131000001000400034014000140040004C014027
:10132000005001400054014000180040001C0040E3
:1013300000200040004001400044014000480140BE
:101340007372635C73746D3332663130785F7469C5
:101350006D2E6300FEE700000FB4054B10B503A926
:10136000044A029800F018F810BC5DF814FB000065
:10137000B31500080C00002002E008C8121F08C1C5
:10138000002AFAD170477047002001E001C1121F06
:10139000002AFBD1704700002DE9FF4F8BB09A4621
:1013A0000F460546002606E025280BD052460D992B
:1013B00090476D1C761C28780028F5D10FB0304678
:1013C000BDE8F08F0024A0460122604900E00443FC
:1013D00015F8013F203B02FA03F00842F7D12878C4
:1013E0002E2817D115F8010F44F004042A280ED036
:1013F0006FF02F022878A0F1300109290AD808EBF4
:10140000880102EB410100EB01086D1CF2E757F87F
:10141000048B6D1C287869283ED006DC0028CDD0CE
:1014200063280BD0642804D136E0732810D07528C7
:101430004BD052460D999047761C85E017F8040B67
:101440008DF8000000208DF80100E946012003E03E
:1014500057F8049B4FF0FF3061074FF0000401D4B0
:101460000AE0641C44450DDA8442FADB19F80410E2
:101470000029F6D106E0641C8442FCDB19F8041054
:101480000029F8D1264404E019F8010B52460D99C1
:101490009047641EF8D257E001CF4FF00A0B0028A6
:1014A00002DA40422D2102E0210504D52B218DF8DE
:1014B0002410012103E0E10705D02021F7E70DF119
:1014C000200908910CE00021F9E701CF4FF00A0B49
:1014D000F9E75946FEF726FE01F1300209F8012D21
:1014E0000028F6D1ADEB090000F1200B600701D414
:1014F0004FF00108D84502DDA8EB0B0000E000200A
:101500008046002406E009A85246005D0D999047E8
:10151000641C761C08988442F5DB04E030205246B7
:101520000D999047761CB8F10001A8F10108F5DC8F
:1015300005E019F8010B52460D999047761CBBF156
:101540000001ABF1010BF4DC6D1C34E7092801004C
:101550000A46014601A0FFF7FFFEFEE757726F6ED5
:101560006720706172616D65746572732076616C5D
:1015700075653A2066696C65202573206F6E206C56
:10158000696E652025640D0A0000000010B5034651
:101590004FF47A7402E0204600F003F85B1EFAD2A2
:1015A00010BD03E00721491EC9B2FCD2401EF9D28A
:1015B000704738B504468DF8000069460320ABBE7D
:1015C000204638BDFFF710FCFFF774F8FFF78AF8E4
:1015D000FEF7D0FD00F038F800F04AF84FF4FA704A
:1015E000FFF7D4FF154C0126DFF854A0154D40F647
:1015F0003408002740F6B839A66002212846FFF7D4
:1016000039FAA0605046FEF745FE2080A168012906
:1016100003D1404501D9666001E0606840B1042112
:101620002846FFF7D3FA4846FFF7B0FF6760E4E7C4
:1016300004212846FFF78AFADFE7000000000020B7
:10164000002401400008014008B54FF4E060FFF7B6
:1016500051FB1D208DF8000000208DF801008DF851
:10166000020001208DF803006846FFF7F3FA08BD79
:101670003EB542F20F70ADF804004720ADF800000F
:1016800000200B4CADF80600ADF80200694620467C
:10169000FFF7AAFD01212046FFF742FC0122114677
:1016A0002046FFF723FD01212046FFF7A9FC3EBDA0
:1016B00000040040D41600080000002010000000C4
:1016C00078130008E4160008100000200004000051
:1016D0008813000800000000000000000100000066
:0416E0000000000006
:0400000508000101ED
:00000001FF
