:020000040800F2
:100000002004002001010008F5050008F1050008A2
:10001000F305000875010008B9140008000000008D
:100020000000000000000000000000003908000887
:100030007701000800000000E1060008E50800085C
:100040001B0100081B0100081B0100081B01000820
:100050001B0100081B0100081B0100081B01000810
:100060001B0100081B0100081B0100081B01000800
:100070001B0100081B0100081B0100081B010008F0
:100080001B0100081B0100081B0100081B010008E0
:100090001B0100081B0100081B0100081B010008D0
:1000A0001B0100081B0100081B0100081B010008C0
:1000B0001B010008390900081B0100081B0100088A
:1000C0001B0100081B0100081B0100081B010008A0
:1000D0001B0100082D0E00081B0100081B01000871
:1000E0001B0100081B0100081B010008DFF80CD0F1
:1000F00000F02EF8004800470317000820040020F5
:100100000648804706480047FEE7FEE7FEE7FEE7B1
:10011000FEE7FEE7FEE7FEE7FEE7FEE7E908000888
:10012000ED00000830B50B460146002020220124D6
:1001300009E021FA02F59D4205D303FA02F5491BB5
:1001400004FA02F52844151EA2F10102F1DC30BDCB
:10015000064C074D06E0E06840F0010394E8070014
:1001600098471034AC42F6D3FFF7C4FFA417000839
:10017000C4170008FEE7704708B510208DF803008B
:1001800003208DF802008003ADF8000069460448A2
:1001900000F00AF80121034800F0B0F808BD0000A3
:1001A00000100140000230002DE9F04104464648AD
:1001B00000260D46844215D04448844212D044485B
:1001C00084420FD0434884420CD04348844209D033
:1001D0004248844206D04248844203D0B22141A022
:1001E00001F068FAE87888B104280FD028280DD0EB
:1001F00048280BD0142809D0102807D01C2805D077
:10020000182803D0B32137A001F054FA288818B970
:10021000B42134A001F04EFAE87800F00F07C006D0
:100220000CD5A878012807D0022805D0032803D0D0
:10023000BB212CA001F03EFAA878074328784FF0A4
:100240000F0C10F0FF0F4FF0010E1BD021682A8811
:100250000EFA06F00240824210D1B2000CFA02F30C
:1002600021EA030307FA02F1EA781943282A02D0A7
:10027000482A02D002E0606100E02061761C082E6E
:10028000E5D321602888FF281CD96168002000F18F
:1002900008030EFA03F22B88134093420ED1830019
:1002A0000CFA03F6B14307FA03F6EB783143282B37
:1002B00000D16261EB78482B00D12261401C0828F4
:1002C000E5D36160BDE8F08100080140000C014009
:1002D000001001400014014000180140001C0140C2
:1002E000002001407372635C73746D333266313089
:1002F000785F6770696F2E63000000002DE9F041A0
:100300000D46044601287DD0022C7BD0042C79D0E8
:10031000082C77D0A4F5A010103873D0A4F5A01045
:1003200030386FD0A4F5B01040386BD0A4F5B010C1
:10033000C0387DD0574884427AD05748844277D01D
:100340005648844274D05648844271D055488442FD
:100350006ED0B4F5805F6BD0B4F5EA1F68D0B4F509
:10036000EB1F65D0B4F5004F62D06FF40010C442AB
:100370005ED0A4F50010801E5AD0A4F50010001F16
:1003800056D0A4F50010083852D0A4F5001010384B
:100390004ED0B4F1201F4BD0A4F50010403847D008
:1003A0004148844244D04148844241D0404884423C
:1003B0003ED0404884423BD03F48844238D0B4F5D8
:1003C000011F35D06FF00040C44231D0C01C8442C0
:1003D0002ED0801C84422BD0001D844228D0374868
:1003E000844225D035481030844221D03348303003
:1003F00084421DD031487030844219D02F48F030EB
:10040000844200E014E013D02D48844210D02D48DF
:1004100084420DD02C4884420AD02C48844207D014
:100420002B48844204D040F22A212AA001F042F94C
:1004300035B1012D04D040F22B2126A001F03AF96C
:100440002A49002C01DACA6900E04A68630D1E01DE
:10045000A3B2C4F30157B340C4F30340032F05D044
:10046000E6020AD503268640B24307E022F0706018
:100470004A6822F070624A6002E09A4342F070607B
:1004800005B11843002C02DAC861BDE8F08148606C
:10049000FBE700000001180000021800000318002C
:1004A00000081A00000C1A000001300000023000A1
:1004B0000004300000112000002020001000008007
:1004C000000200800004008000080080001000800E
:1004D000002000807372635C73746D333266313058
:1004E000785F6770696F2E630000000000000140B4
:1004F00070B5044611480D46844216D01048844217
:1005000013D01048844210D00F4884420DD00F48B9
:1005100084420AD00E48844207D00E48844204D058
:1005200040F279110CA001F0C5F825B94FF4BD7166
:1005300009A001F0BFF8656170BD0000000801402E
:10054000000C01400010014000140140001801405F
:10055000001C0140002001407372635C73746D33B2
:1005600032663130785F6770696F2E63000000007B
:1005700070B5044611480D46844216D01048844296
:1005800013D01048844210D00F4884420DD00F4839
:1005900084420AD00E48844207D00E48844204D0D8
:1005A00040F269110CA001F085F825B94FF4B5713E
:1005B00009A001F07FF8256170BD0000000801402E
:1005C000000C0140001001400014014000180140DF
:1005D000001C0140002001407372635C73746D3332
:1005E00032663130785F6770696F2E6300000000FB
:1005F000FEE7FEE77047000070B50446C0780F259F
:1006000028B1012803D075211FA001F053F86078AC
:10061000102803D376211CA001F04CF8A0781028F4
:1006200003D3772118A001F045F8E0780122F8B152
:1006300018480068617800F4E060C0F5E060000AE6
:10064000C0F10403C540A0789940284008432178B0
:10065000000101F1E02181F80004207800F01F0181
:100660008A404009800000F1E020C0F8002170BD00
:10067000207800F01F018A404009800000F1E0204E
:10068000C0F8802170BD00007372635C6D69736394
:100690002E6300000CED00E010B50446B0F5E06FED
:1006A0000FD0B4F5C06F0CD0B4F5A06F09D0B4F57D
:1006B000806F06D0B4F5407F03D0632103A000F023
:1006C000F9FF054804430548046010BD7372635C7C
:1006D0006D6973632E6300000000FA050CED00E005
:1006E0007047000070B504460C480D46044200D126
:1006F00024B940F269410AA000F0DCFF0D4E4DB173
:10070000012D04D040F26A4105A000F0D3FFF0694A
:10071000204301E0F069A043F06170BD0036018123
:100720007372635C73746D3332663130785F7263F9
:10073000632E63000010024070B504460C480D465D
:10074000044200D124B940F24A410AA000F0B2FFAD
:100750000D4E4DB1012D04D040F24B4105A000F0EB
:10076000A9FFB069204301E0B069A043B06170BD4A
:100770000200C0FF7372635C73746D333266313094
:10078000785F7263632E63000010024010B5012190
:100790001120FFF7D1FF0121BDE810400220FFF733
:1007A000A1BF000030B5204A5168204B11F00C0168
:1007B00003D0042901D0082901D0036012E0516858
:1007C000536801F470114FF0020413F4803F04EBFE
:1007D000914102D053689B0301D5154B00E0134BA8
:1007E0005943016051680F2303EA1111114B5C5CFE
:1007F0000168E14041605468072505EA14241C5D46
:1008000021FA04F48460546805EAD4241B5DD940BD
:10081000C1605268032303EA9232064B1B1F9A5CA5
:10082000B1FBF2F1016130BD0010024000127A000C
:1008300000093D0004000020704700000CB50022B4
:10084000264800920192016841F4803101604FF422
:10085000A063016801F4003101910099491C0091E5
:10086000019911B900999942F3D10168890333D5EF
:10087000012101911A490A6842F010020A600A68CF
:1008800022F003020A600A6842F002020A6041682C
:10089000416041684160416841F480614160416864
:1008A00021F47C114160416841F4E8114160016824
:1008B00041F08071016001688901FCD5416821F037
:1008C00003014160416841F0020141604168C1F3A8
:1008D00081010229FAD10CBD01920CBD0010024029
:1008E00000200240704700000F4810B5016841F039
:1008F0000101016041680D4A1140416001680C4AE4
:1009000011400160016821F480210160416821F4F7
:10091000FE0141604FF41F018160FFF78FFF054921
:100920004FF00060086010BD001002400000FFF8AA
:10093000FFFFF6FE08ED00E010B501210C4800F0C5
:100940001DF80C490878FF280CD0401C0870C2B272
:100950004B7809484FF440419A4205D2BDE8104017
:10096000FFF706BE0020F1E7BDE81040FFF7C0BD6D
:1009700000040040150000200010014070B504463E
:1009800021480D46844234D0B4F1804F31D01F4805
:1009900084422ED01E4884422BD01E48844228D048
:1009A0001D48844225D01D48844222D01C488442E0
:1009B0001FD01C4884421CD01B48844219D01B48BD
:1009C000844216D01A48844213D01A48844210D068
:1009D000194884420DD0194884420AD018488442EC
:1009E00007D01848844204D040F6772116A000F0C2
:1009F00061FE280A00D125B940F6782112A000F046
:100A000059FEE843208270BD002C014000040040E4
:100A100000080040000C004000100040001400409E
:100A200000340140004C014000500140005401409E
:100A300000180040001C0040002000400040014021
:100A400000440140004801407372635C73746D336D
:100A500032663130785F74696D2E630070B504467C
:100A600024480D46844234D0B4F1804F31D022481E
:100A700084422ED0214884422BD02148844228D061
:100A80002048844225D02048844222D01F488442F6
:100A90001FD01F4884421CD01E48844219D01E48D3
:100AA000844216D01D48844213D01D48844210D081
:100AB0001C4884420DD01C4884420AD01B48844202
:100AC00007D01B48844204D040F2293119A000F01D
:100AD000F1FD55B1012D04D040F22A3115A000F0EE
:100AE000E9FD208840F0010002E0208820F00100AC
:100AF000208070BD002C0140000400400008004030
:100B0000000C004000100040001400400034014080
:100B1000004C0140005001400054014000180040CA
:100B2000001C004000200040004001400044014003
:100B3000004801407372635C73746D333266313008
:100B4000785F74696D2E630070B5044628481646B8
:100B50000D46844234D0B4F1804F31D025488442D0
:100B60002ED0254884422BD02448844228D02448C3
:100B7000844225D02348844222D0234884421FD077
:100B8000224884421CD02248844219D02148844201
:100B900016D02148844213D02048844210D02048E7
:100BA00084420DD01F4884420AD01F48844207D097
:100BB0001E48844204D040F26B311DA000F07AFD43
:100BC000280A00D125B94FF45B7119A000F072FD1D
:100BD0004EB1012E04D040F26D3115A000F06AFD37
:100BE000A089284301E0A089A843A08170BD00002E
:100BF000002C01400004004000080040000C0040B0
:100C0000001000400014004000340140004C01403E
:100C1000005001400054014000180040001C0040FA
:100C200000200040004001400044014000480140D5
:100C30007372635C73746D3332663130785F7469DC
:100C40006D2E63002DE9F05F444FDFF81481DFF86B
:100C50001491DFF814A1DFF814B1454E0D46044697
:100C6000B8422ED0B4F1804F2BD0444529D04C450A
:100C700027D0544525D05C4523D03E48844220D01F
:100C8000B4421ED03C4884421BD03C48844218D019
:100C90003B48844215D03B48844212D03A488442B3
:100CA0000FD03A4884420CD03948844209D03948A0
:100CB000844206D03848844203D0E72137A000F0B0
:100CC000F9FC688858B1102809D0202807D040289E
:100CD00005D0602803D0E82130A000F0EBFCE888C4
:100CE00048B1B0F5807F06D0B0F5007F03D0E92190
:100CF0002AA000F0DFFC2088BC420AD0B44208D011
:100D0000B4F1804F05D0444503D04C4501D0544543
:100D100003D120F07001688808435C4506D015496E
:100D20008C4203D020F44071E88808432080A888D2
:100D3000A08528882085BC420AD0B44208D0144837
:100D4000844205D01348844202D01348844201D122
:100D5000287A20860120A082BDE8F09F002C014067
:100D60000004004000080040000C0040001000405B
:100D70000034014000140040004C0140005001408C
:100D80000054014000180040001C004000200040BA
:100D90000040014000440140004801407372635C20
:100DA00073746D3332663130785F74696D2E630011
:100DB0001FB500F091F800F07BF800F025F84FF433
:100DC000165000900020ADF80400ADF80600ADF814
:100DD0000800ADF80C0004200A4CADF80A00694682
:100DE000204600F067FA012240F22551204600F02B
:100DF000E1F90121204600F019F94021204600F0D8
:100E000071F81FBD0038014008B54FF48060ADF89F
:100E1000000002208DF8020004208DF803006946CE
:100E20000148FFF7C1F908BD0008014070B51D4C2D
:100E300040F225552946204600F036F9B8B129463A
:100E4000204600F099F8204600F006FBC1B2164893
:100E5000164A3029017004D0312904D0322906D134
:100E600003E00A2002E0642000E0FA20107040F263
:100E700027752946204600F017F918B12946204663
:100E800000F07AF840F226652946204600F00CF979
:100E9000002805D029462046BDE8704000F06CB817
:100EA00070BD000000380140140000201600002032
:100EB00008B54FF4C060FFF7EFFB25208DF8000068
:100EC00001208DF8010000218DF802108DF803003B
:100ED0006846FFF791FB08BD012144F20500FFF7CA
:100EE0002BBC00002DE9F041184E194FDFF864804B
:100EF0000D460446B0420ED0BC420CD044450AD048
:100F00001548844207D01548844204D040F29E31EF
:100F100013A000F0CFFB35F4587000D125B940F292
:100F20009F310FA000F0C6FBA8050AD5B44208D037
:100F3000BC4206D0444504D040F2A33108A000F0E2
:100F4000B9FBE8432080BDE8F08100000038014093
:100F50000044004000480040004C00400050004069
:100F60007372635C73746D3332663130785F75739E
:100F70006172742E630000002DE9F047204EDFF807
:100F80008480DFF884900D460446B0420ED044457C
:100F90000CD04C450AD01D48844207D01C488442DE
:100FA00004D040F20A411BA000F084FBA5F5C0600C
:100FB00040F66A1726380ED0A5F5A06025380AD06D
:100FC000A5F50060463806D0BD4204D040F20B4182
:100FD00010A000F06FFBBD420AD1B44208D04445D6
:100FE00006D04C4504D040F20F410AA000F062FB4D
:100FF000290A01208840C0432080BDE8F087000016
:10100000003801400044004000480040004C0040CF
:10101000005000407372635C73746D33326631301C
:10102000785F75736172742E6300000070B50446BA
:1010300012480D46844210D0114884420DD0114808
:1010400084420AD01048844207D01048844204D019
:101050004FF4B1710EA000F02DFB55B1012D04D05D
:1010600040F263110AA000F025FBA08940F4005073
:1010700002E0A08920F40050A08170BD003801403A
:101080000044004000480040004C00400050004038
:101090007372635C73746D3332663130785F75736D
:1010A0006172742E630000002DE9F047DFF8D880EC
:1010B0000026DFF8D890DFF8D8A00C46054640455A
:1010C0000ED04D450CD055450AD03248854207D048
:1010D0003148854204D040F2C13130A000F0EAFA34
:1010E000282C32D0A4F5E06040F66A1727381FD0CC
:1010F000A4F5C06026381BD0A4F5A060253817D011
:10110000A4F58060243813D0A4F5006046380FD0D1
:10111000BC420DD0B4F5587F17D0B4F5187F14D069
:10112000B4F5B07F11D040F2C2311CA000F0C2FA79
:10113000BC420AD1454508D04D4506D0554504D09E
:1011400040F2C63115A000F0B5FA04F01F020123E9
:10115000C4F3421103FA02F0012910D0022910D081
:10116000A98A4FEA142203FA02F32A88014202EA0A
:10117000030201D002B101263046BDE8F087A989FB
:10118000EFE7298AEDE70000003801400044004005
:1011900000480040004C0040005000407372635C07
:1011A00073746D3332663130785F75736172742E8B
:1011B000630000002DE9F047DFF8CC80DFF8CC9029
:1011C000DFF8CCA016460C46054640450ED04D45EE
:1011D0000CD055450AD02F48854207D02E4885426D
:1011E00004D040F289112DA000F064FA40F66A178D
:1011F000282C1CD0A4F5E060273818D0A4F5C060D6
:10120000263814D0A4F5A060253810D0A4F580604D
:1012100024380CD0A4F50060463808D0BC4206D073
:10122000602C04D04FF4C5711CA000F043FA36B115
:10123000012E04D040F28B1118A000F03BFABC4202
:101240000AD1454508D04D4506D0554504D040F259
:101250008F1112A000F02EFA04F01F020120C4F337
:1012600042119040012906D0022906D01435296880
:101270002EB1014304E00C35F9E71035F7E781435F
:101280002960BDE8F08700000038014000440040BC
:1012900000480040004C0040005000407372635C06
:1012A00073746D3332663130785F75736172742E8A
:1012B000630000002DE9F0435B4E5C4FDFF8708166
:1012C00085B00D460446B0420DD0BC420BD044451B
:1012D00009D05848844206D05748844203D0B821E8
:1012E00056A000F0E7F928685A49401E884203D307
:1012F000B92152A000F0DEF9A8884FF4805928B136
:10130000484503D0BA214DA000F0D4F9E88858B17F
:10131000484509D0B0F5005F06D0B0F5405F03D076
:10132000BB2146A000F0C6F9288948B1B0F5806F0E
:1013300006D0B0F5C06F03D0BC2140A000F0BAF9D0
:10134000688930F00C0100D118B9BD213BA000F034
:10135000B1F9A889C0B1B0F5807F0BD0B0F5007F9E
:1013600008D0B0F5407F05D0BE2134A000F0A2F92E
:10137000A88948B1B44207D0BC4205D0444503D047
:10138000C2212EA000F096F9208A4CF6FF71084089
:10139000E98801432182A1894EF6F3100140A88813
:1013A0002A8910436A890A431043A081A08A4FF614
:1013B000FF410840A9890143A1826846FFF7F2F97D
:1013C000B44201D1039800E00298A189090400EB1E
:1013D000C00101EB0010296801D5490000E0890037
:1013E000B0FBF1F06422B0FBF2F109010B096FF0E0
:1013F00018056B4300EB8300A3891D044FF03203F3
:1014000006D503EBC000B0FBF2F000F0070005E0EA
:1014100003EB0010B0FBF2F000F00F000843208156
:1014200005B0BDE8F08300000038014000440040F2
:1014300000480040004C0040005000407372635C64
:1014400073746D3332663130785F75736172742EE8
:101450006300000020AA440010B504460B488442F3
:1014600010D00B4884420DD00A4884420AD00A4862
:10147000844207D00948844204D04FF4197108A06F
:1014800000F018F9A088C0F3080010BD0038014032
:101490000044004000480040004C00400050004024
:1014A0007372635C73746D3332663130785F757359
:1014B0006172742E63000000FEE700000FB4054B5C
:1014C00010B503A9044A029800F018F810BC5DF8A2
:1014D00014FB0000F11600081800002002E008C804
:1014E000121F08C1002AFAD170477047002001E09E
:1014F00001C1121F002AFBD1704700002DE9FF4FE8
:101500008BB09A460F460546002606E025280BD0EC
:1015100052460D9990476D1C761C28780028F5D10D
:101520000FB03046BDE8F08F0024A046012260498C
:1015300000E0044315F8013F203B02FA03F00842A3
:10154000F7D128782E2817D115F8010F44F004049C
:101550002A280ED06FF02F022878A0F13001092937
:101560000AD808EB880102EB410100EB01086D1C71
:10157000F2E757F8048B6D1C287869283ED006DC0A
:101580000028CDD063280BD0642804D136E073281E
:1015900010D075284BD052460D999047761C85E0A7
:1015A00017F8040B8DF8000000208DF80100E946C3
:1015B000012003E057F8049B4FF0FF3061074FF024
:1015C000000401D40AE0641C44450DDA8442FADBCD
:1015D00019F804100029F6D106E0641C8442FCDBF3
:1015E00019F804100029F8D1264404E019F8010B79
:1015F00052460D999047641EF8D257E001CF4FF044
:101600000A0B002802DA40422D2102E0210504D510
:101610002B218DF82410012103E0E10705D02021C2
:10162000F7E70DF1200908910CE00021F9E701CF5F
:101630004FF00A0BF9E75946FEF774FD01F130024D
:1016400009F8012D0028F6D1ADEB090000F1200BBF
:10165000600701D44FF00108D84502DDA8EB0B006C
:1016600000E000208046002406E009A85246005D04
:101670000D999047641C761C08988442F5DB04E0C1
:10168000302052460D999047761CB8F10001A8F120
:101690000108F5DC05E019F8010B52460D99904759
:1016A000761CBBF10001ABF1010BF4DC6D1C34E7DF
:1016B000092801000A46014601A0FFF7FFFEFEE7E8
:1016C00057726F6E6720706172616D6574657273B9
:1016D0002076616C75653A2066696C6520257320FB
:1016E0006F6E206C696E652025640D0A0000000095
:1016F00038B504468DF8000069460320ABBE20468D
:1017000038BDFFF755FBFFF741F8FEF735FD00F058
:1017100003F800F025F8FEE738B54FF4C065284619
:10172000FEF7BAFF1E208DF8000001248DF801405D
:1017300000208DF802008DF803406846FEF75CFF3C
:101740002846FEF7A9FF1D208DF800008DF8014006
:101750008DF802408DF803406846FEF74DFF38BD16
:101760003EB50920ADF804004720ADF80000002088
:101770000B4CADF80600ADF8020069462046FFF7B5
:1017800061FA01212046FFF7F9F8012211462046AF
:10179000FFF7DAF901212046FFF760F93EBD0000AE
:1017A00000040040C4170008000000201C000000D6
:1017B000DC140008E01700081C00002004040000EE
:1017C000EC140008020406080000000001020304F3
:1017D000010203040607080900007E000000000063
:0400000508000101ED
:00000001FF
