:020000040800F2
:100000003004002001010008A7140008950C000826
:10001000A514000817080008ED1D000800000000E6
:10002000000000000000000000000000751800083B
:1000300019080008000000001D1700082119000819
:100040001B0100081B0100081B0100081B01000820
:100050001B0100081B0100081B0100081B01000810
:100060001B0100081B0100081B0100081B01000800
:100070001B0100081B0100081B0100081B010008F0
:100080001B0100081B0100081B0100081B010008E0
:100090001B0100081B0100081B0100081B010008D0
:1000A0001B0100081B0100081B0100081B010008C0
:1000B0001B010008751900081B0100081B0100083E
:1000C0001B0100081B0100081B0100081B010008A0
:1000D0001B0100081B0100081B0100081B01000890
:1000E0001B0100081B0100081B010008DFF80CD0F1
:1000F00000F05EFB00480047652300083004002044
:100100000648804706480047FEE7FEE7FEE7FEE7B1
:10011000FEE7FEE7FEE7FEE7FEE7FEE7251900083B
:10012000ED00000880EA010210B502F00043400033
:1001300022D04A001FD0010E01EB1261C0F356001D
:10014000C2F3560240F4000042F40002A0FB022079
:1001500000047F39140400D0401C50EA124001D43E
:100160004000491EC2B20C0604EBD010401C4008EF
:10017000802A02D003E0002010BD20F001000029F9
:1001800000DA0020184310BD30B480EA010202F00A
:10019000004530F0004221F0004013D090B1C30D73
:1001A000D40DC2F31601C0F31600E41A41F40001A5
:1001B00040F400027D34914201D3641C00E0490008
:1001C000002C02DA30BC002070474FF400000023FE
:1001D000914201D3891A034340084FEA4101F7D104
:1001E00051B1914202D14FF0004105E002D24FF0EF
:1001F000010101E06FF0010103EBC450284430BC61
:1002000000F011B9420005D0C0F3C75252429142EA
:1002100001DC0020704700EBC15070472DE9F04D24
:1002200081EA030404F0004B21F0004514464FF02E
:10023000000A23F0004150EA050220D054EA0102EE
:100240001DD0C5F30A570246C5F31303C1F31300CB
:10025000C1F30A5640F4801543F48013A7EB060857
:10026000101BD64608F2FD3873EB050002D308F1E7
:10027000010801E092185B41B8F1000F03DA002099
:100280000146BDE8F08D00204FF4801106468446FB
:100290000EE0171B73EB050705D3121B63EB050379
:1002A00006434CEA010C49084FEA300092185B41C2
:1002B00050EA0107EDD152EA030012D082EA0400AD
:1002C00083EA0501084305D0101BAB4106D2012289
:1002D000002306E000224FF0004302E06FF001022D
:1002E00053101AEB06004CEB085110EB0A0041EBDF
:1002F0000B01BDE8F04D00F0CDB8C10F80EAE07011
:100300000844CA079623002100F096B800F0004286
:1003100020F00040C10DC0F3160040F400007F291A
:1003200001DA00207047962903DCC1F19601C8402C
:1003300001E096398840002AF4D04042704770B5F9
:10034000C1F30A5201F000450024C1F3130140F249
:10035000FF3341F480119A4201DA002070BD40F26F
:1003600033439A42A2F2334203DC524200F04BF88C
:1003700000E090402C43F1D0404270BD00F00042BC
:1003800030F000400AD0C10D01F56071C0F31600D5
:1003900042EA0151C208400711437047002001465C
:1003A000704701F0004330B421F0004150EA0102EF
:1003B00006D00A0DA2F56072C1F31301002A02DC17
:1003C00030BC00207047440F44EAC104C100E0186B
:1003D00030BC00EBC25000F026B830B50B460146E9
:1003E00000202022012409E021FA02F59D4205D3D4
:1003F00003FA02F5491B04FA02F52844151EA2F17E
:100400000102F1DC30BD202A04DB203A21FA02F09F
:100410000021704721FA02F3D040C2F1200291403E
:100420000843194670470029A8BF7047401C49007F
:1004300008BF20F00100704710B4B0FA80FC00FA49
:100440000CF050EA010404BF10BC704749B1CCF174
:10045000200421FA04F411FA0CF118BF0121214300
:100460000843A3EB0C01CB1D4FEA00614FEA1020BB
:1004700042BF002010BC704700EBC350104400295D
:10048000A4BF10BC7047401C490008BF20F0010009
:1004900010BC704710B5141E73F1000408DA401C3C
:1004A00041F1000192185B411A4301D120F0010093
:1004B00010BD2DE9F04D92469B4611B1B1FA81F283
:1004C00002E0B0FA80F22032904600F083F9044650
:1004D0000F4640EA0A0041EA0B0153465A460843D8
:1004E00013D0114653EA010019D0C8F1400250461A
:1004F000FFF789FF05460E4650465946424600F032
:1005000069F9084305D0012004E020463946BDE8DA
:10051000F08D0020054346EAE0762C4337430A98E5
:100520006305E40AA0EB08000022FD0A44EA4754F0
:100530000A3002D500200146E9E70105101969419A
:10054000DDE9084500196941BDE8F04DA2E72DE954
:10055000FE4F804681EA0300C00F0C46009021F058
:10056000004123F00045B8EB0200A94105D2404606
:10057000214690461C460B46024623F0004010439D
:1005800047D0270DC7F30A00C3F30A510290401A5F
:10059000019040286BDAC3F3130040F4801B0098ED
:1005A000924620B10023D2EB030A63EB0B0B0198B8
:1005B0005946C0F14002504600F00CF906460D467F
:1005C00050465946019A00F014F910EB08006141B9
:1005D000002487EA115284EAE7731A4340D0009A54
:1005E00062B3019A012A4FEA075215DC001B61EB46
:1005F00002014FF0004202EA0752CDE90042001C1E
:1006000041F5801132462B46FFF753FF03B0BDE89A
:10061000F08F40462146F9E7001B61EB0201001C08
:1006200041F5801300185B412018A2F5001747EB35
:10063000030140EAD570B6196D4111E06D084FEA2B
:10064000360645EAC0754FEA0752001B61EB02010E
:10065000001C41F5801149084FEA30000019514152
:1006600032462B4603B0BDE8F04FFFF713BF0098AA
:10067000012240000023D0EB020263EBE0730098FC
:1006800021464FEAE074B8EB000061EB0401E9E7B2
:1006900083F000435BE781F0004158E72DE9FE4F0E
:1006A00081EA030404F0004421F0004100944FF07B
:1006B000000B23F0004350EA01045ED052EA030429
:1006C0005BD0C3F30A54C1F30A552C44A4F2F334AB
:1006D0000194A0FB0254C1F3130141F48011C3F350
:1006E000130343F4801301FB024400FB034E840A0E
:1006F000970A44EA815447EA8357A4FB07680295A6
:100700008D0A05FB07854FEA932C04FB0C54270543
:10071000029D4FEA065847EA1637B5EB08056EEB1F
:10072000070C870E920E47EA811742EA8312A7FB55
:100730000201B6EB0B0164EB00042B0D43EA0C3312
:100740005E1844EB1C50DA465146E7FB0201C5F344
:1007500013044FEA0B3343EA14534FEA0432019C6B
:1007600043EA0603A4F10C040294009CCDE900B412
:10077000FFF79FFE03B0BDE8F08F00200146F9E7C8
:1007800070B521F0004303430CD0C1F30A55002497
:10079000D5EB040564EB0403D617AD1AB34102DBB5
:1007A0000020014670BD201841EB025170BD0000D1
:1007B000064C074D06E0E06840F0010394E80700AE
:1007C00098471034AC42F6D3FFF794FC602600083B
:1007D00080260008202A04DB203A00FA02F10020DB
:1007E00070479140C2F1200320FA03F3194390406F
:1007F0007047202A06DBCB17203A41FA02F043EA81
:10080000E07306E041FA02F3D040C2F120029140C9
:10081000084319467047FEE77047000008B51020EE
:100820008DF8030003208DF802000720ADF80000CA
:100830006946044800F00AF80121034800F0B0F8C6
:1008400008BD000000080140000230002DE9F04121
:100850000446464800260D46844215D0444884424A
:1008600012D0444884420FD0434884420CD04348BD
:10087000844209D04248844206D04248844203D090
:10088000B22141A001F024FCE87888B104280FD0FF
:1008900028280DD048280BD0142809D0102807D0BC
:1008A0001C2805D0182803D0B32137A001F010FC74
:1008B000288818B9B42134A001F00AFCE87800F0C7
:1008C0000F07C0060CD5A878012807D0022805D04C
:1008D000032803D0BB212CA001F0FAFBA878074322
:1008E00028784FF00F0C10F0FF0F4FF0010E1BD0C7
:1008F00021682A880EFA06F00240824210D1B20026
:100900000CFA02F321EA030307FA02F1EA78194329
:10091000282A02D0482A02D002E0606100E020616B
:10092000761C082EE5D321602888FF281CD9616831
:10093000002000F108030EFA03F22B8813409342C3
:100940000ED183000CFA03F6B14307FA03F6EB78F5
:100950003143282B00D16261EB78482B00D1226112
:10096000401C0828E5D36160BDE8F0810008014023
:10097000000C01400010014000140140001801402B
:10098000001C0140002001407372635C73746D337E
:1009900032663130785F6770696F2E630000000047
:1009A0002DE9F0410D46044601287DD0022C7BD074
:1009B000042C79D0082C77D0A4F5A010103873D06F
:1009C000A4F5A01030386FD0A4F5B01040386BD02B
:1009D000A4F5B010C0387DD0574884427AD057482B
:1009E000844277D05648844274D05648844271D0AD
:1009F000554884426ED0B4F5805F6BD0B4F5EA1FE1
:100A000068D0B4F5EB1F65D0B4F5004F62D06FF439
:100A10000010C4425ED0A4F50010801E5AD0A4F588
:100A20000010001F56D0A4F50010083852D0A4F5CD
:100A3000001010384ED0B4F1201F4BD0A4F5001098
:100A4000403847D04148844244D04148844241D054
:100A5000404884423ED0404884423BD03F48844294
:100A600038D0B4F5011F35D06FF00040C44231D00A
:100A7000C01C84422ED0801C84422BD0001D844296
:100A800028D03748844225D035481030844221D0C0
:100A90003348303084421DD031487030844219D000
:100AA0002F48F030844200E014E013D02D488442F7
:100AB00010D02D4884420DD02C4884420AD02C48B6
:100AC000844207D02B48844204D040F22A212AA035
:100AD00001F0FEFA35B1012D04D040F22B2126A001
:100AE00001F0F6FA2A49002C01DACA6900E04A68E6
:100AF000630D1E01A3B2C4F30157B340C4F3034016
:100B0000032F05D0E6020AD503268640B24307E04C
:100B100022F070604A6822F070624A6002E09A43F4
:100B200042F0706005B11843002C02DAC861BDE8DC
:100B3000F0814860FBE70000000118000002180087
:100B40000003180000081A00000C1A000001300011
:100B500000023000000430000011200000202000BE
:100B60001000008000020080000400800008008067
:100B700000100080002000807372635C73746D331A
:100B800032663130785F6770696F2E630000000055
:100B90000000014070B5044611480D46844216D04D
:100BA0001048844213D01048844210D00F48844229
:100BB0000DD00F4884420AD00E48844207D00E4818
:100BC000844204D040F279110CA001F081FA25B9D9
:100BD0004FF4BD7109A001F07BFA656170BD0000A2
:100BE00000080140000C01400010014000140140C9
:100BF00000180140001C0140002001407372635C3A
:100C000073746D3332663130785F6770696F2E634D
:100C10000000000070B5044611480D46844216D00D
:100C20001048844213D01048844210D00F488442A8
:100C30000DD00F4884420AD00E48844207D00E4897
:100C4000844204D040F269110CA001F041FA25B9A8
:100C50004FF4B57109A001F03BFA256170BD0000A9
:100C600000080140000C0140001001400014014048
:100C700000180140001C0140002001407372635CB9
:100C800073746D3332663130785F6770696F2E63CD
:100C900000000000FEE7000010B586B00121092029
:100CA00000F068FD0121480500F03AFDC020ADF8D4
:100CB000100002208DF812001C208DF8130004A9EA
:100CC0001048FFF7C3FD0020ADF804004BF6FF709D
:100CD000ADF806003A20ADF808004FF48060ADF89A
:100CE0000A000001ADF80C0044F62060064C0090AC
:100CF0006946204600F0C4F90121204600F0ACF816
:100D000006B010BD000C01400054004070B5044610
:100D10000E480D46844207D00D48844204D040F26C
:100D2000BD110CA001F0D4F955B1012D04D04FF440
:100D3000DF7108A001F0CCF9208840F4806002E067
:100D4000208820F48060208070BD000000540040A6
:100D5000005800407372635C73746D3332663130D7
:100D6000785F6932632E630070B50546334800260C
:100D70000C46854207D03248854204D040F20D41EE
:100D800030A001F0A5F9A4F5C02082384AD0B4F112
:100D9000021F47D0A4F50600803843D0B4F5020FF7
:100DA00040D0B4F5901F3DD0A4F50030403839D084
:100DB000A4F50200403835D0A4F59010403831D069
:100DC000A4F5C02084382DD0A4F50600843829D09D
:100DD000A4F5B010843825D0102C23D06FF4403007
:100DE000C4421FD0A4F5E02082381BD0A4F54030C7
:100DF000801E17D0A4F54030403813D0A4F5E02071
:100E000084380FD0A4F5E02080380BD0A4F5403012
:100E1000083807D0B4F5806F04D040F20E4109A025
:100E200001F056F9A88A298B40EA014020F07F4062
:100E3000844300D10126304670BD000000540040BC
:100E4000005800407372635C73746D3332663130E6
:100E5000785F6932632E630070B504460E480D4614
:100E6000844207D00D48844204D040F245110CA0C2
:100E700001F02EF955B1012D04D04FF4A37108A053
:100E800001F026F9208840F0010002E0208820F0DF
:100E90000100208070BD0000005400400058004058
:100EA0007372635C73746D3332663130785F6932AC
:100EB000632E630070B504460E480D46844207D089
:100EC0000D48844204D040F28D110CA001F000F9CD
:100ED00055B1012D04D04FF4C77108A001F0F8F806
:100EE000208840F4807002E0208820F48070208008
:100EF00070BD000000540040005800407372635CF5
:100F000073746D3332663130785F6932632E6300FB
:100F100070B504460E480D46844207D00D48844201
:100F200004D040F2A5110CA001F0D2F855B1012D6A
:100F300004D04FF4D37108A001F0CAF8208840F41F
:100F4000007002E0208820F40070208070BD000056
:100F500000540040005800407372635C73746D333A
:100F600032663130785F6932632E63007CB50546A6
:100F7000002636480C4600960196854207D0344834
:100F8000854204D040F2734132A001F0A1F8B4F5DB
:100F9000000F47D0B4F5800F44D0B4F5001F41D006
:100FA000B4F5801F3ED0B4F5802F3BD0B4F5003FA0
:100FB00038D0B4F5803F35D02B48844232D02B480E
:100FC00084422FD0B4F1102F2CD02948844229D04C
:100FD0002848844226D02848844223D02748844287
:100FE00020D0A4F1805080381CD0A4F1805040382B
:100FF00018D0A4F18050103814D0A4F180500838D3
:1010000010D0A4F18050001F0CD0A4F18050801E9D
:1010100008D06FF08050C44204D040F274410DA05B
:1010200001F056F8200FCDE90005009924F07F402B
:1010300011B105F1140102E0000C05F11801019154
:101040000968014200D0012630467CBD00540040B2
:10105000005800407372635C73746D3332663130D4
:10106000785F6932632E630000800010004000103A
:101070000008001000040010000200100001001021
:101080002DE9F04104464D4886B00D46844206D015
:101090004B48844203D0C6214AA001F019F82868C1
:1010A0004D49401E884203D9C72146A001F010F8DF
:1010B000A88838B1022805D00A2803D0C82141A049
:1010C00001F006F8E8884FF480484BF6FF7740457A
:1010D00005D0B84203D0C9213AA000F0F9FF288911
:1010E0004FF48066B04203D3CA2136A000F0F0FF6F
:1010F0006889B04204D018B1CB2132A000F0E8FFDB
:10110000A889404506D0B0F5404F03D0CC212DA092
:1011100000F0DEFFA08820F03F06684600F060FB8C
:101120002E490298B0FBF1F189B20E43A6802288C5
:1011300022F0010222802A4B2A689A421DD85200CE
:10114000B0FBF2F080B2042800D20420491C2184B4
:10115000A083208840F00100208020884FF6F531E0
:101160000840A9886A89114301432180A8892989F7
:101170000843208106B0BDE8F081EB88BB4205D171
:1011800002EB4202B0FBF2F080B208E002EBC203D5
:1011900003EB0212B0FBF2F080B240F48040020593
:1011A00001D140F001004FF4967251434FF47A722E
:1011B000B1FBF2F140F40040C8E7000000540040E9
:1011C000005800407372635C73746D333266313063
:1011D000785F6932632E63007F1A060040420F0079
:1011E000A08601002DE9F041314D884607464FF4B5
:1011F000003421462846FFF7B9FE0028F9D1012125
:101200002846FFF757FE2B4C28462146FFF7ACFD3A
:101210000028F9D000223946284600F06DF8264E05
:1012200028463146FFF7A0FD0028F9D001212846C5
:10123000FFF712FE4146284600F08AF81E4EB61C03
:1012400031462846FFF790FD0028F9D001212846B5
:10125000FFF730FE21462846FFF786FD0028F9D02B
:1012600001223946284600F047F8124C641C2146FA
:101270002846FFF779FD0028F9D000212846FFF71E
:1012800045FD0C4C3F3421462846FFF76DFD0028F4
:10129000F9D0284600F012F8044601212846FFF74D
:1012A00037FE01212846FFF731FD2046BDE8F081D9
:1012B00000540040010003008200070010B50446FE
:1012C0000648844207D00648844204D040F24A21AE
:1012D00004A000F0FDFE208AC0B210BD0054004002
:1012E000005800407372635C73746D333266313042
:1012F000785F6932632E630070B504460D48154669
:101300000E46844207D00C48844204D04FF4177133
:101310000AA000F0DDFE4DB1012D04D040F25D21A8
:1013200006A000F0D5FE46F0010001E006F0FE0048
:10133000208270BD00540040005800407372635C0E
:1013400073746D3332663130785F6932632E6300B7
:1013500070B5044606480D46844207D005488442CD
:1013600004D040F23D2104A000F0B2FE258270BD01
:1013700000540040005800407372635C73746D3316
:1013800032663130785F6932632E63002DE9F041B7
:101390001B4C88460746164601212046FFF78AFD6A
:1013A000184D20462946FFF7DFFC0028F9D000221F
:1013B00039462046FFF7A0FF134D20462946FFF788
:1013C000D3FC0028F9D041462046FFF7C1FF25464F
:1013D0000D4CA41C21462846FFF7C6FC0028F9D076
:1013E00031462846FFF7B4FF21462846FFF7BCFCEC
:1013F0000028F9D02846BDE8F0410121FFF788BD5B
:101400000054004001000300820007002DE9F04174
:1014100080463B21D020FFF7E5FE04023C21D0208E
:10142000FFF7E0FE04444FF40046B44202DDA4F5A9
:101430007F44FF3C3F21D020FFF7D4FE050240212E
:10144000D020FFF7CFFE0544B54202DDA5F57F456C
:10145000FF3D3D21D020FFF7C5FE07023E21D020F1
:10146000FFF7C0FE3844B04202DDA0F57F40FF38F0
:10147000C8E90040C8F80850BDE8F08110B5FFF792
:101480000BFC00226B21D020FFF780FF06221A21DF
:10149000D020FFF77BFF01221C21BDE81040D020A7
:1014A000FFF774BFFEE7704770B50446C0780F259C
:1014B00028B1012803D075211FA000F009FE607833
:1014C000102803D376211CA000F002FEA07810287B
:1014D00003D3772118A000F0FBFDE0780122F8B1DA
:1014E00018480068617800F4E060C0F5E060000A28
:1014F000C0F10403C540A0789940284008432178F2
:10150000000101F1E02181F80004207800F01F01C2
:101510008A404009800000F1E020C0F8002170BD41
:10152000207800F01F018A404009800000F1E0208F
:10153000C0F8802170BD00007372635C6D697363D5
:101540002E6300000CED00E010B50446B0F5E06F2E
:101550000FD0B4F5C06F0CD0B4F5A06F09D0B4F5BE
:10156000806F06D0B4F5407F03D0632103A000F064
:10157000AFFD054804430548046010BD7372635C09
:101580006D6973632E6300000000FA050CED00E046
:1015900008B50121102000F0EDF810208DF80300AF
:1015A00003208DF8020040F6FF70ADF80000694698
:1015B0000348FFF74BF901210248FFF7F1F908BD95
:1015C00000100140000230002DE9F05F4FF47A7105
:1015D00090FBF1F16FF07C02514300EBC1016422FA
:1015E00091FBF2F46FF01802624301EB82010A22D0
:1015F00091FBF2F56A4202EB8202474F01EB420691
:1016000000284FF480714FF460684FF400794FF474
:10161000506A4FF4806B38463EDAFFF7FBFA4146DA
:101620003846FFF7B7FA704200F038FF012000F0AB
:101630007DFE49463846FFF7EDFA51463846FFF73A
:10164000A9FA684200F02AFF80213846FFF7A2FA83
:10165000012000F06BFE59463846FFF7DBFA4FF4E5
:1016600030613846FFF796FA604200F017FF01201C
:1016700000F05CFEF9143846FFF7CCFA4FF4E06155
:101680003846FFF787FAFF213846FFF7C3FA4021B3
:101690003846FFF77FFA3AE0FFF7BCFA4146384692
:1016A000FFF778FA304600F0F9FE012000F03EFE28
:1016B00049463846FFF7AEFA51463846FFF76AFA10
:1016C000284600F0EBFE80213846FFF763FA012040
:1016D00000F02CFE59463846FFF79CFA4FF4306173
:1016E0003846FFF757FA204600F0D8FE012000F0F8
:1016F0001DFE4FF400613846FFF78CFA4FF4E061AD
:101700003846FFF747FAFF213846FFF783FABDE86E
:10171000F05F012000F00ABE001001407047000099
:1017200070B504460C480D46044200D124B940F27D
:1017300069410AA000F0CCFC0D4E4DB1012D04D042
:1017400040F26A4105A000F0C3FCF069204301E0CB
:10175000F069A043F06170BD003601817372635C73
:1017600073746D3332663130785F7263632E630059
:101770000010024070B504460C480D46044200D1EA
:1017800024B940F24A410AA000F0A2FC0D4E4DB12E
:10179000012D04D040F24B4105A000F099FCB06946
:1017A000204301E0B069A043B06170BD0200C0FFFA
:1017B0007372635C73746D3332663130785F726359
:1017C000632E63000010024010B501210220FFF7D4
:1017D000A7FF0121BDE810400520FFF7CBBF0000A7
:1017E00030B5204A5168204B11F00C0103D0042978
:1017F00001D0082901D0036012E05168536801F458
:1018000070114FF0020413F4803F04EB914102D0B9
:1018100053689B0301D5154B00E0134B59430160FE
:1018200051680F2303EA1111114B5C5C0168E14020
:1018300041605468072505EA14241C5D21FA04F46C
:101840008460546805EAD4241B5DD940C1605268A5
:10185000032303EA9232064B1B1F9A5CB1FBF2F1A1
:10186000016130BD0010024000127A0000093D0005
:1018700004000020704700000CB5002226480092AA
:101880000192016841F4803101604FF4A063016866
:1018900001F4003101910099491C0091019911B99D
:1018A00000999942F3D10168890333D5012101914F
:1018B0001A490A6842F010020A600A6822F003021C
:1018C0000A600A6842F002020A60416841604168A9
:1018D0004160416841F480614160416821F47C11BC
:1018E0004160416841F4E8114160016841F0807154
:1018F000016001688901FCD5416821F00301416064
:10190000416841F0020141604168C1F3810102294F
:10191000FAD10CBD01920CBD001002400020024023
:10192000704700000F4810B5016841F001010160E7
:1019300041680D4A1140416001680C4A1140016044
:10194000016821F480210160416821F4FE014160B9
:101950004FF41F018160FFF78FFF05494FF00060D2
:10196000086010BD001002400000FFF8FFFFF6FE07
:1019700008ED00E010B501210C4800F01DF80C49FD
:101980000878FF280CD0401C0870C2B2496809488A
:101990008A424FF0040105DABDE81040FFF73AB97A
:1019A0000020F1E7BDE81040FFF7F4B80004004064
:1019B000140000200008014070B5044621480D467F
:1019C000844234D0B4F1804F31D01F4884422ED0AD
:1019D0001E4884422BD01E48844228D01D48844291
:1019E00025D01D48844222D01C4884421FD01C4868
:1019F00084421CD01B48844219D01B48844216D014
:101A00001A48844213D01A48844210D0194884429C
:101A10000DD0194884420AD01848844207D018488B
:101A2000844204D040F6772116A000F051FB280A2A
:101A300000D125B940F6782112A000F049FBE84317
:101A4000208270BD002C01400004004000080040CE
:101A5000000C004000100040001400400034014021
:101A6000004C01400050014000540140001800406B
:101A7000001C0040002000400040014000440140A4
:101A8000004801407372635C73746D3332663130A9
:101A9000785F74696D2E630070B5044624480D4666
:101AA000844234D0B4F1804F31D0224884422ED0C9
:101AB000214884422BD02148844228D020488442A7
:101AC00025D02048844222D01F4884421FD01F487E
:101AD00084421CD01E48844219D01E48844216D02D
:101AE0001D48844213D01D48844210D01C488442B3
:101AF0000DD01C4884420AD01B48844207D01B48A2
:101B0000844204D040F2293119A000F0E1FA55B125
:101B1000012D04D040F22A3115A000F0D9FA208816
:101B200040F0010002E0208820F00100208070BD1C
:101B3000002C01400004004000080040000C004060
:101B4000001000400014004000340140004C0140EF
:101B5000005001400054014000180040001C0040AB
:101B60000020004000400140004401400048014086
:101B70007372635C73746D3332663130785F74698D
:101B80006D2E630070B50446284816460D46844203
:101B900034D0B4F1804F31D0254884422ED025482E
:101BA00084422BD02448844228D02448844225D023
:101BB0002348844222D0234884421FD022488442B2
:101BC0001CD02248844219D02148844216D0214892
:101BD000844213D02048844210D0204884420DD043
:101BE0001F4884420AD01F48844207D01E488442BE
:101BF00004D040F26B311DA000F06AFA280A00D12F
:101C000025B94FF45B7119A000F062FA4EB1012EB4
:101C100004D040F26D3115A000F05AFAA089284393
:101C200001E0A089A843A08170BD0000002C014004
:101C30000004004000080040000C0040001000407C
:101C40000014004000340140004C014000500140AD
:101C50000054014000180040001C004000200040DB
:101C60000040014000440140004801407372635C41
:101C700073746D3332663130785F74696D2E630032
:101C80002DE9F05F444FDFF81481DFF81491DFF89D
:101C900014A1DFF814B1454E0D460446B8422ED0CB
:101CA000B4F1804F2BD0444529D04C4527D0544522
:101CB00025D05C4523D03E48844220D0B4421ED07B
:101CC0003C4884421BD03C48844218D03B48844264
:101CD00015D03B48844212D03A4884420FD03A484B
:101CE00084420CD03948844209D03948844206D015
:101CF0003848844203D0E72137A000F0E9F968882A
:101D000058B1102809D0202807D0402805D06028D5
:101D100003D0E82130A000F0DBF9E88848B1B0F545
:101D2000807F06D0B0F5007F03D0E9212AA000F023
:101D3000CFF92088BC420AD0B44208D0B4F1804F19
:101D400005D0444503D04C4501D0544503D120F083
:101D50007001688808435C4506D015498C4203D061
:101D600020F44071E88808432080A888A08528884E
:101D70002085BC420AD0B44208D01448844205D021
:101D80001348844202D01348844201D1287A208625
:101D90000120A082BDE8F09F002C0140000400401B
:101DA00000080040000C00400010004000340140DA
:101DB00000140040004C014000500140005401401C
:101DC00000180040001C004000200040004001407E
:101DD00000440140004801407372635C73746D33CA
:101DE00032663130785F74696D2E6300FEE7000063
:101DF0000FB4054B10B503A9044A029800F08CF803
:101E000010BC5DF814FB00005323000820000020E4
:101E1000490050EAC12018BF04204A0D18BF40F005
:101E2000010040F2FF72B2EB515F08BF40F00200C8
:101E3000012808BF052070472DE9F0414F1E00EB37
:101E4000C7010446D1E9000115461E4637F00602D7
:101E50000DD02A463346FEF721FC7F1E04EBC70354
:101E6000D3E90023FEF773FB37F00602F1D1022F0E
:101E700025D0042F13D0062F18BFBDE8F0812A46C5
:101E80003346FEF70BFCD4E90A23FEF760FB2A4633
:101E90003346FEF703FCD4E90823FEF758FB2A4635
:101EA0003346FEF7FBFBD4E90623FEF750FB2A4638
:101EB0003346FEF7F3FBD4E90423FEF748FB2A463A
:101EC0003346FEF7EBFBD4E90223FEF740FB2A463C
:101ED0003346FEF7E3FBD4E90023BDE8F041FEF70B
:101EE00036BB0122FEF74CBC024A00201107FEF768
:101EF00047BC000001FDFFFF02E008C8121F08C137
:101F0000002AFAD170477047002001E001C1121F7A
:101F1000002AFBD1704700002DE9FF4F8BB09A4695
:101F20000F460546002606E025280BD052460D999F
:101F300090476D1C761C28780028F5D10FB03046EC
:101F4000BDE8F08F0024A0460122604900E0044370
:101F500015F8013F203B02FA03F00842F7D1287838
:101F60002E2817D115F8010F44F004042A280ED0AA
:101F70006FF02F022878A0F1300109290AD808EB68
:101F8000880102EB410100EB01086D1CF2E757F8F4
:101F9000048B6D1C287869283ED006DC0028CDD043
:101FA00063280BD0642804D136E0732810D075283C
:101FB0004BD052460D999047761C85E017F8040BDC
:101FC0008DF8000000208DF80100E946012003E0B3
:101FD00057F8049B4FF0FF3061074FF0000401D425
:101FE0000AE0641C44450DDA8442FADB19F8041057
:101FF0000029F6D106E0641C8442FCDB19F80410C9
:102000000029F8D1264404E019F8010B52460D9935
:102010009047641EF8D257E001CF4FF00A0B00281A
:1020200002DA40422D2102E0210504D52B218DF852
:102030002410012103E0E10705D02021F7E70DF18D
:10204000200908910CE00021F9E701CF4FF00A0BBD
:10205000F9E75946FEF7C1F901F1300209F8012DFF
:102060000028F6D1ADEB090000F1200B600701D488
:102070004FF00108D84502DDA8EB0B0000E000207E
:102080008046002406E009A85246005D0D9990475D
:10209000641C761C08988442F5DB04E0302052462C
:1020A0000D999047761CB8F10001A8F10108F5DC04
:1020B00005E019F8010B52460D999047761CBBF1CB
:1020C0000001ABF1010BF4DC6D1C34E709280100C1
:1020D0000A46014601A0FFF78BFEFEE757726F6EBE
:1020E0006720706172616D65746572732076616CD2
:1020F00075653A2066696C65202573206F6E206CCB
:10210000696E652025640D0A000000002DE9F84F76
:1021100004460D4621F0004000917349814211DCD4
:102120007249884201DC06D12CB120462946BDE81F
:10213000F84FFFF7D6BE6E48002DCCBF6D496E49F3
:10214000BDE8F88F6D49814211DD6D498142D8BFEC
:102150004FF0FF366DDD20462946FFF759FE042873
:1021600008BFFFF7C1FE20462946BDE8F88F654944
:10217000654F25F00045814233DD6449814219DD18
:10218000002632464FF0804320462946FEF7DFF90D
:1021900080468A46012220462946FEF7F1FA0022AF
:1021A0003B46FEF775FA42465346FEF737F80446BB
:1021B0000D463EE001260022BA463B46204629460F
:1021C000FEF7C5F980460F460022534620462946B1
:1021D000FEF75EFA42463B46FEF720F804460D46FF
:1021E00027E04B4981421BDDDFF828A102260022AF
:1021F000534620462946FEF751FA00223B46FEF799
:10220000A6F980460F460022534620462946FEF78F
:102210003FFA42463B46FEF701F804460D4608E009
:10222000032622462B4600203B49FDF7F7FF0446D4
:102230000D4622462B4610461946FEF72FFA8B46CE
:10224000824602460B46FEF729FA07460246334805
:1022500088460B4606217844FFF7EEFD52465B4662
:10226000FEF71CFA82462E488B463A464346052125
:102270007844FFF7E1FD3A464346FEF70FFA02467F
:102280000B46002E504659460CDAFEF760F92246FE
:102290002B46FEF703FA01B022462B46BDE8F04F6D
:1022A000FEF7F9B9FEF753F922462B46FEF7F6F989
:1022B0001C4A7A4402EBC603D3E90023FEF7E8F98F
:1022C00022462B46FEF7E4F9174A7A4402EBC6038E
:1022D000D3E90023FEF7DFF9009A002AB8BF81F0A6
:1022E0000041BDE8F88F0000000010440000F07FBE
:1022F000182D4454FB21F93FFB21F9BF0000DC3FBE
:102300000000203E0000F33F0000F03F0000E63FE9
:10231000008003400000F83F0000F0BFD60300003B
:102320009403000032030000FA02000010B50346D7
:102330004FF47A7402E0204600F003F85B1EFAD2F4
:1023400010BD03E00721491EC9B2FCD2401EF9D2DC
:10235000704738B504468DF8000069460320ABBECF
:10236000204638BD0EB5FFF72FFAFFF711F9FEF73B
:1023700055FAFFF783F800F0EFF800F001F94FF499
:10238000FA70FFF7D3FFDFF8F0803C4EDFF8F090F3
:10239000DFF8F0B04FF4000A6846FFF737F89DE821
:1023A0000E0088E80E000C461846FDF7A6FF05460D
:1023B0002046FDF7A2FF2946FDF7E6FEFDF7DEFF0A
:1023C000FFF7A4FEFDF7EDFF57464D46C9F808009C
:1023D000B84207DB01213046FEF71CFC02213046E3
:1023E000FEF7D8FBA86810F1FF4F07D30221304653
:1023F000FEF710FC01213046FEF7CCFBAC68224909
:10240000BC4220460DDBFDF78DFE0121FDF7FAFEF3
:10241000FDF7B4FF1D4A1E4BFDF700FFFDF78FFFD0
:102420000DE0FDF77FFE0121FDF7ECFEFDF7A6FFB5
:10243000164A174BFDF7F2FEFDF781FF4042686038
:1024400014492046FDF76EFEFDF798FF124A104B27
:10245000FDF7E4FEFDF7A5FF00245F46A8603946BE
:10246000A868FDF75FFEFDF751FFFFF7ADF8641CAC
:10247000322CF4DB90E7000024000020000801402B
:10248000140000200000204100007F434AD8124D74
:10249000FB21094000003443441741542D490A28C8
:1024A00056D2DFE800F0050D151D252D353D454DB3
:1024B000C86820F0FF00C860C86840F0C00046E06F
:1024C000C86820F0FF00C860C86840F0F9003EE02E
:1024D000C86820F0FF00C860C86840F0A40036E07B
:1024E000C86820F0FF00C860C86840F0B0002EE067
:1024F000C86820F0FF00C860C86840F0990026E076
:10250000C86820F0FF00C860C86840F092001EE074
:10251000C86820F0FF00C860C86840F0820016E07C
:10252000C86820F0FF00C860C86840F0F8000EE0FE
:10253000C86820F0FF00C860C86840F0800006E06E
:10254000C86820F0FF00C860C86840F09000C8600C
:10255000704700000010014008B54FF4C060FEF75E
:10256000F3FF1D208DF8000001208DF801008DF88B
:1025700002008DF803006846FEF796FF08BD0000D4
:102580003EB50920ADF804004720ADF8000000205A
:102590000B4CADF80600ADF8020069462046FFF787
:1025A0006FFB01212046FFF707FA01221146204662
:1025B000FFF7E8FA01212046FFF76EFA3EBD000062
:1025C00000040040000000004FBB610567ACDD3F28
:1025D000182D4454FB21E93F9BF681D20B73EF3F4A
:1025E000182D4454FB21F93FE2652F227F2B7A3CC2
:1025F000075C143326A6813CBDCBF07A8807703C7B
:10260000075C143326A6913CC4EB98999999C9BFED
:10261000711623FEC671BCBF6D9A74AFF2B0B3BF22
:102620009AFDDE522DDEADBF2F6C6A2C44B4A2BFE2
:102630000D5555555555D53FFF8300922449C23F4E
:102640006E204CC5CD45B73F513DD0A0660DB13F82
:10265000EB0D76244B7BA93F11DA22E33AAD903F94
:10266000802600080000002024000000F81E00085A
:10267000A4260008240000200C040000081F000805
:102680000204060800000000010203040102030422
:1026900006070809000000007800000000000000A4
:0426A0000000000036
:0400000508000101ED
:00000001FF
