:020000040800F2
:1000000068060020010100087D120008791200082E
:100010007B120008FD0D0008ED1A0008000000002A
:100020000000000000000000000000003115000882
:10003000FF0D0008000000006D140008DD15000829
:100040001B0100081B0100081B0100081B01000820
:100050001B0100081B0100081B0100081B01000810
:100060001B0100081B0100081B0100081B01000800
:100070001B0100081B0100081B0100081B010008F0
:100080001B0100081B0100081B0100081B010008E0
:100090001B0100081B0100081B0100081B010008D0
:1000A0001B0100081B0100081B0100081B010008C0
:1000B0001B010008311600081B0100081B01000885
:1000C0001B0100081B0100081B0100081B010008A0
:1000D0001B0100081B0100081B0100081B01000890
:1000E0001B0100081B0100081B010008DFF80CD0F1
:1000F00000F0A6FB004800475D1D000868060020D0
:100100000648804706480047FEE7FEE7FEE7FEE7B1
:10011000FEE7FEE7FEE7FEE7FEE7FEE7E115000883
:10012000ED000008F0B480EA0102D40F4200B2EB07
:10013000410F02D20246084611464A0042D0C30D82
:10014000DDB2C1F3C752AD1A202D35DAC1F3160165
:1001500041F4000204B15242C5F1200602FA06F150
:100160002A411044B3EBD05F23D0C4B1012DA0EBE2
:10017000C35009DCF0BC4FF0004202EAC352DBB2CC
:1001800000F5000000F0D0BA400000F1807000EBF4
:10019000C350A0F1807040EAD170490009E04908DD
:1001A00041EAC071A0EBC35000F50000400800EB2D
:1001B000C350F0BC00F0AFBA6142012202EB410132
:1001C000001BF6E7F0BC704781F00041AAE780F021
:1001D0000040A7E780EA010210B502F000434000AA
:1001E00022D04A001FD0010E01EB1261C0F356006D
:1001F000C2F3560240F4000042F40002A0FB0220C9
:1002000000047F39140400D0401C50EA124001D48D
:100210004000491EC2B20C0604EBD010401C40083E
:10022000802A02D003E0002010BD20F00100002948
:1002300000DA0020184310BD30B480EA010202F059
:10024000004530F0004221F0004013D090B1C30DC2
:10025000D40DC2F31601C0F31600E41A41F40001F4
:1002600040F400027D34914201D3641C00E0490057
:10027000002C02DA30BC002070474FF4000000234D
:10028000914201D3891A034340084FEA4101F7D153
:1002900051B1914202D14FF0004105E002D24FF03E
:1002A000010101E06FF0010103EBC450284430BCB0
:1002B00000F031BA2DE9FE4F804681EA0300C00FFD
:1002C0000C46009021F0004123F00045B8EB0200FD
:1002D000A94105D24046214690461C460B4602469F
:1002E00023F00040104347D0270DC7F30A00C3F3A3
:1002F0000A510290401A019040286BDAC3F31300B0
:1003000040F4801B0098924620B10023D2EB030AF0
:1003100063EB0B0B01985946C0F14002504600F0C8
:10032000D9F906460D4650465946019A00F0E1F9C2
:1003300010EB08006141002487EA115284EAE77358
:100340001A4340D0009A62B3019A012A4FEA075239
:1003500015DC001B61EB02014FF0004202EA07527C
:10036000CDE90042001C41F5801132462B4600F0D9
:1003700018FA03B0BDE8F08F40462146F9E7001BAC
:1003800061EB0201001C41F5801300185B4120184D
:10039000A2F5001747EB030140EAD570B6196D418D
:1003A00011E06D084FEA360645EAC0754FEA07527C
:1003B000001B61EB0201001C41F5801149084FEA66
:1003C00030000019514132462B4603B0BDE8F04FD2
:1003D00000F0D8B90098012240000023D0EB0202BF
:1003E00063EBE073009821464FEAE074B8EB00003D
:1003F00061EB0401E9E783F000435BE781F0004132
:1004000058E72DE9FE4F81EA030404F0004421F08F
:10041000004100944FF0000B23F0004350EA010428
:100420005ED052EA03045BD0C3F30A54C1F30A5509
:100430002C44A4F2F3340194A0FB0254C1F3130141
:1004400041F48011C3F3130343F4801301FB02440E
:1004500000FB034E840A970A44EA815447EA835713
:10046000A4FB076802958D0A05FB07854FEA932CCC
:1004700004FB0C542705029D4FEA065847EA16373D
:10048000B5EB08056EEB070C870E920E47EA811755
:1004900042EA8312A7FB0201B6EB0B0164EB0004F6
:1004A0002B0D43EA0C335E1844EB1C50DA465146E0
:1004B000E7FB0201C5F313044FEA0B3343EA14537D
:1004C0004FEA0432019C43EA0603A4F10C040294AF
:1004D000009CCDE900B400F064F903B0BDE8F08FF2
:1004E00000200146F9E72DE9F04D81EA030404F00C
:1004F000004B21F0004514464FF0000A23F0004164
:1005000050EA050220D054EA01021DD0C5F30A5773
:100510000246C5F31303C1F31300C1F30A5640F4B6
:10052000801543F48013A7EB0608101BD64608F28B
:10053000FD3873EB050002D308F1010801E09218C1
:100540005B41B8F1000F03DA00200146BDE8F08DF1
:1005500000204FF48011064684460EE0171B73EB13
:10056000050705D3121B63EB050306434CEA010C98
:1005700049084FEA300092185B4150EA0107EDD17B
:1005800052EA030012D082EA040083EA050108431C
:1005900005D0101BAB4106D20122002306E0002249
:1005A0004FF0004302E06FF0010253101AEB060017
:1005B0004CEB085110EB0A0041EB0B01BDE8F04D8C
:1005C00000F0E0B8C10F80EAE0700844CA07962343
:1005D000002100F0A9B80EB540F23341029100218C
:1005E000CDE900110A460B4600F0DBF803B000BD70
:1005F00000F0004220F00040C10DC0F3160040F4AE
:1006000000007F2901DA00207047962903DCC1F140
:100610009601C84001E096398840002AF4D0404253
:10062000704700F0004230F000400AD0C10D01F5E3
:100630006071C0F3160042EA0151C208400711433D
:10064000704700200146704701F0004330B421F0AC
:10065000004150EA010206D00A0DA2F56072C1F312
:100660001301002A02DC30BC00207047440F44EA2A
:10067000C104C100E01830BC00EBC25000F04BB820
:10068000002801DBC0F10040002901DBC1F100417D
:1006900081427047002801DBC0F10040002901DBE6
:1006A000C1F100418842704730B50B460146002039
:1006B0002022012409E021FA02F59D4205D303FA24
:1006C00002F5491B04FA02F52844151EA2F10102A5
:1006D000F1DC30BD202A04DB203A00FA02F10020D0
:1006E00070479140C2F1200320FA03F31943904070
:1006F0007047202A06DBCB17203A41FA02F043EA82
:10070000E07306E041FA02F3D040C2F120029140CA
:100710000843194670470029A8BF7047401C49008C
:1007200008BF20F00100704710B4B0FA80FC00FA56
:100730000CF050EA010404BF10BC704749B1CCF181
:10074000200421FA04F411FA0CF118BF012121430D
:100750000843A3EB0C01CB1D4FEA00614FEA1020C8
:1007600042BF002010BC704700EBC350104400296A
:10077000A4BF10BC7047401C490008BF20F0010016
:1007800010BC704710B5141E73F1000408DA401C49
:1007900041F1000192185B411A4301D120F00100A0
:1007A00010BD2DE9F04D92469B4611B1B1FA81F290
:1007B00002E0B0FA80F220329046FFF78BFF044649
:1007C0000F4640EA0A0041EA0B0153465A460843E5
:1007D00013D0114653EA010019D0C8F14002504627
:1007E00000F040F805460E46504659464246FFF78F
:1007F00071FF084305D0012004E020463946BDE8DA
:10080000F08D0020054346EAE0762C4337430A98F2
:100810006305E40AA0EB08000022FD0A44EA4754FD
:100820000A3002D500200146E9E7010510196941A7
:10083000DDE9084500196941BDE8F04DA2E7000077
:10084000064C074D06E0E06840F0010394E807001D
:1008500098471034AC42F6D3FFF74CFC2C1F00082D
:100860004C1F0008202A04DB203A21FA02F0002164
:10087000704721FA02F3D040C2F1200291400843B0
:100880001946704730B58C1810F8012B12F00F0381
:1008900001D110F8013B120906D110F8012B03E039
:1008A00010F8015B01F8015B5B1EF9D101E001F872
:1008B000013B521EFBD1A142E6D3002030BD000017
:1008C00010B586B000214FF46020CDE902018DF80B
:1008D00004100120144C00918DF805108DF81000C3
:1008E0006946204600F0C8F807230122002120466F
:1008F00000F062F90121204600F018F8204600F0CF
:10090000FFF9204600F090F80028FAD1204600F0C8
:100910004FFA204600F03CF80028FAD10121204689
:1009200000F014FA06B010BD0024014070B5044672
:100930000F480D4684420AD00E48844207D00E4824
:10094000844204D04FF497710CA001F0CDF955B159
:10095000012D04D040F22F1108A001F0C5F9A068C4
:1009600040F0010002E0A06820F00100A06070BD2E
:100970000024014000280140003C01407372635C88
:1009800073746D3332663130785F6164632E630057
:1009900070B504460A48002584420AD009488442BA
:1009A00007D00948844204D04FF4D97107A001F060
:1009B0009BF9A068400700D50125284670BD0000BE
:1009C0000024014000280140003C01407372635C38
:1009D00073746D3332663130785F6164632E630007
:1009E00010B50446084884420AD00848844207D01B
:1009F0000748844204D040F2C72106A001F074F9F0
:100A0000E06C80B210BD00000024014000280140CD
:100A1000003C01407372635C73746D333266313035
:100A2000785F6164632E630070B504460A48002550
:100A300084420AD00948844207D00948844204D03D
:100A40004FF4C67107A001F04FF9A068000700D568
:100A50000125284670BD0000002401400028014007
:100A6000003C01407372635C73746D3332663130E5
:100A7000785F6164632E63002DE9F04705464448C2
:100A80000C46854209D04348854206D042488542FB
:100A900003D0DF2141A001F027F94FF40036206890
:100AA00077004FF4C0284FF40029D0B1B0F5803F53
:100AB00017D0B04215D0B0F5403F12D0B84210D098
:100AC000B0F5A02F0DD040450BD0B0F5E02F08D0E9
:100AD000484506D0B0F5102F03D0E0212FA001F03B
:100AE00003F9207928B1012803D0E1212BA001F0DE
:100AF000FBF8607928B1012803D0E22127A001F09A
:100B0000F3F8A068A0B1B04212D0B84210D040456E
:100B10000ED048450CD0B0F5202F09D0B0F5402FAD
:100B200006D0B0F5602F03D0E3211CA001F0DCF863
:100B3000E06830B1B0F5006F03D0E42117A001F0F8
:100B4000D3F8207C401E0F2803D9E52113A001F023
:100B5000CBF86868164922790840216840EA0220EB
:100B600001436960A86813490840D4E90221114390
:100B7000627940EA42000143A960E86A217C20F4DE
:100B80007000491EC9B240EA0150E862BDE8F08732
:100B90000024014000280140003C01407372635C66
:100BA00073746D3332663130785F6164632E630035
:100BB000FFFEF0FFFDF7F1FF2DE9F0410546484843
:100BC0001E4617460C4685420AD04648854207D045
:100BD0004548854204D040F2522144A001F084F8F7
:100BE00034B3012C24D0022C22D0032C20D0042C8E
:100BF0001ED0052C1CD0062C1AD0072C18D0082C7F
:100C000016D0092C14D00A2C12D00B2C10D00C2C7E
:100C10000ED00D2C0CD00E2C0AD00F2C08D0102C7E
:100C200006D0112C04D040F2532130A001F05CF822
:100C3000A7F10108B8F10F0F04D94FF415712BA0DB
:100C400001F052F896B1012E10D0022E0ED0032ED4
:100C50000CD0042E0AD0052E08D0062E06D0072E62
:100C600004D040F2552121A001F03EF80722092CC2
:100C70000AD9E968A4F10A0000EB400082409143E0
:100C800086403143E96007E0296904EB4400824073
:100C900091438640314329611F21072F09D26A6B96
:100CA00008EB880081408A43844022436A63BDE8A0
:100CB000F0810D2F09D22A6BFF1F07EB87008140BF
:100CC0008A43844022432A63F1E7EA6A0D3F07EB37
:100CD000870081408A4384402243EA62E7E70000BC
:100CE0000024014000280140003C01407372635C15
:100CF00073746D3332663130785F6164632E6300E4
:100D000010B50446094884420AD00948844207D0F5
:100D10000848844204D04FF4BF7107A000F0E4FFFC
:100D2000A06840F00800A06010BD00000024014051
:100D300000280140003C01407372635C73746D33A2
:100D400032663130785F6164632E630070B50446AB
:100D50000F480D4684420AD00E48844207D00E4800
:100D6000844204D04FF4E6710CA000F0BDFF55B1F1
:100D7000012D04D040F2CD1108A000F0B5FFA0680D
:100D800040F4A00002E0A06820F4A000A06070BDC4
:100D90000024014000280140003C01407372635C64
:100DA00073746D3332663130785F6164632E630033
:100DB00010B50446094884420AD00948844207D045
:100DC0000848844204D04FF4D27107A000F08CFF91
:100DD000A06840F00400A06010BD000000240140A5
:100DE00000280140003C01407372635C73746D33F2
:100DF00032663130785F6164632E6300FEE77047CE
:100E000008B50120ADF8000000208DF80300032094
:100E10008DF802006946044800F00AF801210348F1
:100E200000F0B0F808BD00000008014000023000EA
:100E30002DE9F0410446464800260D46844215D06F
:100E40004448844212D0444884420FD043488442EC
:100E50000CD04348844209D04248844206D04248DC
:100E6000844203D0B22141A000F03EFFE87888B16F
:100E700004280FD028280DD048280BD0142809D0DA
:100E8000102807D01C2805D0182803D0B32137A07C
:100E900000F02AFF288818B9B42134A000F024FFFC
:100EA000E87800F00F07C0060CD5A878012807D015
:100EB000022805D0032803D0BB212CA000F014FF8A
:100EC000A878074328784FF00F0C10F0FF0F4FF071
:100ED000010E1BD021682A880EFA06F002408242D9
:100EE00010D1B2000CFA02F321EA030307FA02F16F
:100EF000EA781943282A02D0482A02D002E0606129
:100F000000E02061761C082EE5D321602888FF28A8
:100F10001CD96168002000F108030EFA03F22B8847
:100F2000134093420ED183000CFA03F6B14307FA43
:100F300003F6EB783143282B00D16261EB78482B24
:100F400000D12261401C0828E5D36160BDE8F08132
:100F500000080140000C0140001001400014014055
:100F600000180140001C0140002001407372635CC6
:100F700073746D3332663130785F6770696F2E63DA
:100F8000000000002DE9F0410D46044601287DD007
:100F9000022C7BD0042C79D0082C77D0A4F5A0109B
:100FA000103873D0A4F5A01030386FD0A4F5B0106D
:100FB00040386BD0A4F5B010C0387DD0574884427B
:100FC0007AD05748844277D05648844274D05648E5
:100FD000844271D0554884426ED0B4F5805F6BD0A6
:100FE000B4F5EA1F68D0B4F5EB1F65D0B4F5004F37
:100FF00062D06FF40010C4425ED0A4F50010801ED1
:101000005AD0A4F50010001F56D0A4F500100838DF
:1010100052D0A4F5001010384ED0B4F1201F4BD0A0
:10102000A4F50010403847D04148844244D041489C
:10103000844241D0404884423ED0404884423BD024
:101040003F48844238D0B4F5011F35D06FF00040DE
:10105000C44231D0C01C84422ED0801C84422BD08C
:10106000001D844228D03748844225D035481030AE
:10107000844221D03348303084421DD03148703012
:10108000844219D02F48F030844200E014E013D09D
:101090002D48844210D02D4884420DD02C488442E3
:1010A0000AD02C48844207D02B48844204D040F216
:1010B0002A212AA000F018FE35B1012D04D040F2FB
:1010C0002B2126A000F010FE2A49002C01DACA6963
:1010D00000E04A68630D1E01A3B2C4F30157B34098
:1010E000C4F30340032F05D0E6020AD50326864049
:1010F000B24307E022F070604A6822F070624A60F2
:1011000002E09A4342F0706005B11843002C02DA05
:10111000C861BDE8F0814860FBE7000000011800ED
:10112000000218000003180000081A00000C1A0042
:1011300000013000000230000004300000112000E7
:1011400000202000100000800002008000040080C9
:101150000008008000100080002000807372635C33
:1011600073746D3332663130785F6770696F2E63E8
:10117000000000000000014070B5044611480D4613
:10118000844216D01048844213D01048844210D0B4
:101190000F4884420DD00F4884420AD00E48844242
:1011A00007D00E48844204D040F279110CA000F020
:1011B0009BFD25B94FF4BD7109A000F095FD656157
:1011C00070BD000000080140000C0140001001400B
:1011D0000014014000180140001C014000200140A3
:1011E0007372635C73746D3332663130785F67702D
:1011F000696F2E630000000070B5044611480D466B
:10120000844216D01048844213D01048844210D033
:101210000F4884420DD00F4884420AD00E488442C1
:1012200007D00E48844204D040F269110CA000F0AF
:101230005BFD25B94FF4B57109A000F055FD25619E
:1012400070BD000000080140000C0140001001408A
:101250000014014000180140001C01400020014022
:101260007372635C73746D3332663130785F6770AC
:10127000696F2E6300000000FEE7FEE77047000084
:1012800070B50446C0780F2528B1012803D0752118
:101290001FA000F029FD6078102803D376211CA040
:1012A00000F022FDA078102803D3772118A000F0C9
:1012B0001BFDE0780122F8B118480068617800F45D
:1012C000E060C0F5E060000AC0F10403C540A0780A
:1012D0009940284008432178000101F1E02181F87C
:1012E0000004207800F01F018A404009800000F1CE
:1012F000E020C0F8002170BD207800F01F018A4076
:101300004009800000F1E020C0F8802170BD00009D
:101310007372635C6D6973632E6300000CED00E013
:1013200010B50446B0F5E06F0FD0B4F5C06F0CD027
:10133000B4F5A06F09D0B4F5806F06D0B4F5407F46
:1013400003D0632103A000F0CFFC05480443054807
:10135000046010BD7372635C6D6973632E6300007B
:101360000000FA050CED00E008B50121102000F0A6
:10137000A9F810208DF8030003208DF8020040F634
:10138000FF70ADF8000069460348FFF751FD0121E9
:101390000248FFF7F7FD08BD0010014000023000D1
:1013A0002DE9F0414FF47A71B0FBF1F66FF07C0259
:1013B00006FB02F100EBC1006421B0FBF1F46FF019
:1013C0001801614300EB81000A21B0FBF1F569428D
:1013D00001EB810100EB4107DFF88C804FF4807155
:1013E0004046FFF709FF4FF460614046FFF7C4FE37
:1013F000384600F007FD012000F094FC4FF4007126
:101400004046FFF7F9FE4FF450614046FFF7B4FE47
:10141000284600F0F7FC80214046FFF7ADFE012092
:1014200000F080FC4FF480614046FFF7E5FE4FF48A
:1014300030614046FFF7A0FE204600F0E3FC0120AB
:1014400000F070FC4FF400614046FFF7D5FE4FF40A
:10145000E0614046FFF790FE304600F0D3FCBDE867
:10146000F041012000F05EBC001001407047000018
:1014700070B504460C480D46044200D124B940F230
:1014800069410AA000F030FC0D4E4DB1012D04D091
:1014900040F26A4105A000F027FCF069204301E01A
:1014A000F069A043F06170BD003601817372635C26
:1014B00073746D3332663130785F7263632E63000C
:1014C0000010024070B504460C480D46044200D19D
:1014D00024B940F24A410AA000F006FC0D4E4DB17D
:1014E000012D04D040F24B4105A000F0FDFBB06996
:1014F000204301E0B069A043B06170BD0200C0FFAD
:101500007372635C73746D3332663130785F72630B
:10151000632E63000010024010B5012140F2052047
:10152000FFF7D0FF0121BDE810400220FFF7A0BF68
:10153000704700000CB50022264800920192016815
:1015400041F4803101604FF4A063016801F400317F
:1015500001910099491C0091019911B90099994292
:10156000F3D10168890333D5012101911A490A6831
:1015700042F010020A600A6822F003020A600A6858
:1015800042F002020A60416841604168416041687E
:1015900041F480614160416821F47C1141604168FF
:1015A00041F4E8114160016841F080710160016817
:1015B0008901FCD5416821F003014160416841F097
:1015C000020141604168C1F381010229FAD10CBDD9
:1015D00001920CBD00100240002002407047000044
:1015E0000F4810B5016841F00101016041680D4AE2
:1015F0001140416001680C4A11400160016821F40A
:1016000080210160416821F4FE0141604FF41F0117
:101610008160FFF78FFF05494FF00060086010BD43
:10162000001002400000FFF8FFFFF6FE08ED00E0AA
:101630002DE9F04101211A4800F03EF8194C012132
:101640002046FFF783FB2046FFF7CAF9164E30808D
:10165000FEF7C1FF154D4FF0663422462B46FEF7CC
:10166000D0FE0022124BFEF73EFFFEF7EDFF0746CD
:10167000FEF7D7FF22462B46FEF7C0FE04460D4676
:101680000C493846FEF7A6FDFEF7CBFF22462B4657
:10169000FEF729FFFEF7D8FF7060BDE8F08100007B
:1016A00000040040002401400000002066660A405B
:1016B00000FEAF400000204170B5044621480D46B1
:1016C000844234D0B4F1804F31D01F4884422ED0B0
:1016D0001E4884422BD01E48844228D01D48844294
:1016E00025D01D48844222D01C4884421FD01C486B
:1016F00084421CD01B48844219D01B48844216D017
:101700001A48844213D01A48844210D0194884429F
:101710000DD0194884420AD01848844207D018488E
:10172000844204D040F6772116A000F0DDFA280AA2
:1017300000D125B940F6782112A000F0D5FAE8438F
:10174000208270BD002C01400004004000080040D1
:10175000000C004000100040001400400034014024
:10176000004C01400050014000540140001800406E
:10177000001C0040002000400040014000440140A7
:10178000004801407372635C73746D3332663130AC
:10179000785F74696D2E630070B5044624480D4669
:1017A000844234D0B4F1804F31D0224884422ED0CC
:1017B000214884422BD02148844228D020488442AA
:1017C00025D02048844222D01F4884421FD01F4881
:1017D00084421CD01E48844219D01E48844216D030
:1017E0001D48844213D01D48844210D01C488442B6
:1017F0000DD01C4884420AD01B48844207D01B48A5
:10180000844204D040F2293119A000F06DFA55B19C
:10181000012D04D040F22A3115A000F065FA20888D
:1018200040F0010002E0208820F00100208070BD1F
:10183000002C01400004004000080040000C004063
:10184000001000400014004000340140004C0140F2
:10185000005001400054014000180040001C0040AE
:101860000020004000400140004401400048014089
:101870007372635C73746D3332663130785F746990
:101880006D2E630070B50446284816460D46844206
:1018900034D0B4F1804F31D0254884422ED0254831
:1018A00084422BD02448844228D02448844225D026
:1018B0002348844222D0234884421FD022488442B5
:1018C0001CD02248844219D02148844216D0214895
:1018D000844213D02048844210D0204884420DD046
:1018E0001F4884420AD01F48844207D01E488442C1
:1018F00004D040F26B311DA000F0F6F9280A00D1A7
:1019000025B94FF45B7119A000F0EEF94EB1012E2C
:1019100004D040F26D3115A000F0E6F9A08928430B
:1019200001E0A089A843A08170BD0000002C014007
:101930000004004000080040000C0040001000407F
:101940000014004000340140004C014000500140B0
:101950000054014000180040001C004000200040DE
:101960000040014000440140004801407372635C44
:1019700073746D3332663130785F74696D2E630035
:101980002DE9F05F444FDFF81481DFF81491DFF8A0
:1019900014A1DFF814B1454E0D460446B8422ED0CE
:1019A000B4F1804F2BD0444529D04C4527D0544525
:1019B00025D05C4523D03E48844220D0B4421ED07E
:1019C0003C4884421BD03C48844218D03B48844267
:1019D00015D03B48844212D03A4884420FD03A484E
:1019E00084420CD03948844209D03948844206D018
:1019F0003848844203D0E72137A000F075F96888A1
:101A000058B1102809D0202807D0402805D06028D8
:101A100003D0E82130A000F067F9E88848B1B0F5BC
:101A2000807F06D0B0F5007F03D0E9212AA000F026
:101A30005BF92088BC420AD0B44208D0B4F1804F90
:101A400005D0444503D04C4501D0544503D120F086
:101A50007001688808435C4506D015498C4203D064
:101A600020F44071E88808432080A888A085288851
:101A70002085BC420AD0B44208D01448844205D024
:101A80001348844202D01348844201D1287A208628
:101A90000120A082BDE8F09F002C0140000400401E
:101AA00000080040000C00400010004000340140DD
:101AB00000140040004C014000500140005401401F
:101AC00000180040001C0040002000400040014081
:101AD00000440140004801407372635C73746D33CD
:101AE00032663130785F74696D2E6300FEE7000066
:101AF0000FB4054B10B503A9044A029800F018F87A
:101B000010BC5DF814FB00004B1D000860020020B3
:101B100002E008C8121F08C1002AFAD170477047B6
:101B2000002001E001C1121F002AFBD17047000014
:101B30002DE9FF4F8BB09A460F460546002606E07A
:101B400025280BD052460D9990476D1C761C28789D
:101B50000028F5D10FB03046BDE8F08F0024A04634
:101B60000122604900E0044315F8013F203B02FADE
:101B700003F00842F7D128782E2817D115F8010F65
:101B800044F004042A280ED06FF02F022878A0F128
:101B9000300109290AD808EB880102EB410100EB6A
:101BA00001086D1CF2E757F8048B6D1C2878692832
:101BB0003ED006DC0028CDD063280BD0642804D1A9
:101BC00036E0732810D075284BD052460D999047B7
:101BD000761C85E017F8040B8DF8000000208DF8C6
:101BE0000100E946012003E057F8049B4FF0FF3065
:101BF00061074FF0000401D40AE0641C44450DDA8B
:101C00008442FADB19F804100029F6D106E0641CBE
:101C10008442FCDB19F804100029F8D1264404E0C2
:101C200019F8010B52460D999047641EF8D257E0FF
:101C300001CF4FF00A0B002802DA40422D2102E0CA
:101C4000210504D52B218DF82410012103E0E107A3
:101C500005D02021F7E70DF1200908910CE00021C3
:101C6000F9E701CF4FF00A0BF9E75946FEF71CFDE3
:101C700001F1300209F8012D0028F6D1ADEB090081
:101C800000F1200B600701D44FF00108D84502DDB8
:101C9000A8EB0B0000E000208046002406E009A825
:101CA0005246005D0D999047641C761C089884424A
:101CB000F5DB04E0302052460D999047761CB8F1D0
:101CC0000001A8F10108F5DC05E019F8010B524606
:101CD0000D999047761CBBF10001ABF1010BF4DCD0
:101CE0006D1C34E7092801000A46014601A0FFF7F0
:101CF000FFFEFEE757726F6E6720706172616D655F
:101D0000746572732076616C75653A2066696C65DE
:101D1000202573206F6E206C696E652025640D0A86
:101D20000000000010B503464FF47A7402E020462C
:101D300000F003F85B1EFAD210BD03E00721491E34
:101D4000C9B2FCD2401EF9D2704738B504468DF8AE
:101D5000000069460320ABBE204638BDFFF7DCFB20
:101D6000FFF74EF8FEF7ACFD00F0AAF800F0BCF863
:101D7000FFF7FAFA4FF4FA70FFF7D4FFDFF87C8030
:101D8000A8F1080500273C464646686856F8241026
:101D9000FEF776FC27D806EB840041686868FEF7FA
:101DA00079FC20D806EB840056F824604168304660
:101DB000FEF70AFA074630466968FEF705FA104949
:101DC000FEF708FA3946FEF737FA06460A3C04EBF6
:101DD00084004000FEF7F6FB3146FEF7A3F9FEF75C
:101DE00007FC074602E0641C372CCEDB0024384693
:101DF000FFF7D6FA641CC82CF9DBC3E70800002003
:101E0000000020412D490A2856D2DFE800F0050DD8
:101E1000151D252D353D454DC86820F0FF00C860D3
:101E2000C86840F0C00046E0C86820F0FF00C86005
:101E3000C86840F0F9003EE0C86820F0FF00C860C4
:101E4000C86840F0A40036E0C86820F0FF00C86011
:101E5000C86840F0B0002EE0C86820F0FF00C860FD
:101E6000C86840F0990026E0C86820F0FF00C8600C
:101E7000C86840F092001EE0C86820F0FF00C8600B
:101E8000C86840F0820016E0C86820F0FF00C86013
:101E9000C86840F0F8000EE0C86820F0FF00C86095
:101EA000C86840F0800006E0C86820F0FF00C86005
:101EB000C86840F09000C860704700000010014002
:101EC00008B54FF4E060FFF72BFA1D208DF80000F5
:101ED00000208DF801008DF8020001208DF803002C
:101EE0006846FFF7CDF908BD3EB542F20F70ADF878
:101EF00004004720ADF8000000200B4CADF80600B0
:101F0000ADF8020069462046FFF73AFD0121204660
:101F1000FFF7D2FB012211462046FFF7B3FC012157
:101F20002046FFF739FC3EBD000400404C1F00086E
:101F30000000002064020000840800082C20000833
:101F40006402002004040000201B0008913089FB7B
:101F50007A3042D578284231D920425F981942CA56
:101F6000B2124212250C42BAEB0542960300428996
:101F7000D2F4413333EA41D122E041A09AD641DE86
:101F800093CD413108C541D8F0BC411147B54181DD
:101F900004AE41FF21A7416599A041F1639A41E157
:101FA0007A9441BADA9341840D8D4100EF8741D391
:101FB0003C82415C8F784153966C41B1E16041585D
:101FC000A855413D0A4B412B1841410AD737412DB5
:101FD000432F41CA542741004FFF20411D3819416A
:101FE0009EEF1241FC180D4187A707415C8F02410B
:101FF0001283F240E5F2E94007CEE1408E06DA4076
:102000004694D2408B6CCB40A089C440C9E5BD400A
:10201000EE7CB740C74BB1400E4FAB401F85A5408B
:0C20200057EC9F40E4839A4001870000C9
:0400000508000101ED
:00000001FF
