:020000040800F2
:1000000010040020010100080D0B0008090B000876
:100010000B0B0008A70300080D11000800000000EA
:10002000000000000000000000000000B70D000804
:10003000A903000800000000F50C0008610E00088C
:100040001B0100081B0100081B0100081B01000820
:100050001B0100081B0100081B010008AD0300087C
:100060001B0100081B0100081B0100081B01000800
:100070001B0100081B0100081B0100081B010008F0
:100080001B0100081B0100081B0100081B010008E0
:100090001B0100081B0100081B0100081B010008D0
:1000A0001B0100081B0100081B0100081B010008C0
:1000B0001B0100081B0100081B0100081B010008B0
:1000C0001B0100081B0100081B0100081B010008A0
:1000D0001B0100081B0100081B0100081B01000890
:1000E0001B0100081B0100081B010008DFF80CD0F1
:1000F00000F038F9004800479D1300081004002064
:100100000648804706480047FEE7FEE7FEE7FEE7B1
:10011000FEE7FEE7FEE7FEE7FEE7FEE7650E000806
:10012000ED0000082DE9FE4F81EA030404F00044CD
:1001300021F0004100944FF0000B23F0004350EAFF
:1001400001045ED052EA03045BD0C3F30A54C1F346
:100150000A552C44A4F2F3340194A0FB0254C1F3D9
:10016000130141F48011C3F3130343F4801301FB23
:10017000024400FB034E840A970A44EA815447EA8A
:100180008357A4FB076802958D0A05FB07854FEA94
:10019000932C04FB0C542705029D4FEA065847EAAE
:1001A0001637B5EB08056EEB070C870E920E47EA83
:1001B000811742EA8312A7FB0201B6EB0B0164EB45
:1001C00000042B0D43EA0C335E1844EB1C50DA4656
:1001D0005146E7FB0201C5F313044FEA0B3343EA30
:1001E00014534FEA0432019C43EA0603A4F10C04C1
:1001F0000294009CCDE900B400F065F803B0BDE8BE
:10020000F08F00200146F9E70EB5C10F80EAE070DB
:100210000844CA07002140F233438DE80E000A4625
:100220000B4600F050F803B000BDC1F30A5210B500
:10023000C1F3130140F2FF3341F480119A4201DA15
:10024000002010BD40F233439A42A2F2334203DC55
:10025000524200F019F810BD904010BD30B50B4669
:10026000014600202022012409E021FA02F59D42E6
:1002700005D303FA02F5491B04FA02F52844151EBA
:10028000A2F10102F1DC30BD202A04DB203A21FA80
:1002900002F00021704721FA02F3D040C2F120029F
:1002A000914008431946704710B5141E73F10004BD
:1002B00008DA401C41F1000192185B411A4301D158
:1002C00020F0010010BD2DE9F04D92469B4611B182
:1002D000B1FA81F202E0B0FA80F22032904600F0EA
:1002E00053F804460F4640EA0A0041EA0B01534620
:1002F0005A46084313D0114653EA010019D0C8F1F9
:1003000040025046FFF7C0FF05460E46504659468C
:10031000424600F039F8084305D0012004E02046A9
:100320003946BDE8F08D0020054346EAE0762C43CF
:1003300037430A986305E40AA0EB08000022FD0A8F
:1003400044EA47540A3002D500200146E9E7010596
:1003500010196941DDE9084500196941BDE8F04D12
:10036000A2E70000064C074D06E0E06840F00103FC
:1003700094E8070098471034AC42F6D3FFF7BAFE72
:100380001815000838150008202A04DB203A00FA66
:1003900002F1002070479140C2F1200320FA03F3DC
:1003A000194390407047FEE77047000010B50220E7
:1003B00000F01EF802210B4800F0BAFA0A4A0A4C73
:1003C000243A38B100202080BDE8104001211046B9
:1003D00000F070BD0021104600F06CFD208803493C
:1003E000086010BD00080140240400400000002007
:1003F00010B50446000D00D11CB9FC2102A000F08C
:1004000083FF0748046010BD7372635C73746D33BF
:1004100032663130785F657874692E6300000000C1
:100420001404014070B50446007928B1042803D0B3
:100430006A2129A000F068FF6079082807D00C28FD
:1004400005D0102803D06B2123A000F05DFF2068A9
:10045000010D00D118B96C211FA000F055FFA07943
:1004600028B1012803D06D211BA000F04DFF2049C9
:10047000A07958B30868226890430860081D026894
:1004800023689A43026020790844026823681A436B
:100490000260174B083318682268904318601A1DD1
:1004A00010682568A84310606079102805D00844BA
:1004B000016822681143016070BD18682168084313
:1004C0001860106821680843106070BD20790844E6
:1004D000016822689143EEE77372635C73746D3355
:1004E00032663130785F657874692E6300000000F1
:1004F00000040140F8B510208DF8030003250D4ECF
:100500008DF802500424ADF800406946304600F0F2
:100510006BF88DF803408DF802500220ADF8000012
:100520006946304600F060F80121002000F004F830
:10053000F8BD00000008014070B50C46050010D061
:10054000012D0ED0022D0CD0032D0AD0042D08D081
:10055000052D06D0062D04D040F265211BA000F029
:10056000D3FE14B3012C20D0022C1ED0032C1CD09F
:10057000042C1AD0052C18D0062C16D0072C14D019
:10058000082C12D0092C10D00A2C0ED00B2C0CD019
:100590000C2C0AD00D2C08D00E2C06D00F2C04D019
:1005A00040F2662109A000F0AFFEA007010F0D4840
:1005B00024F0030318440F2283688A409343836026
:1005C00082688D402A43826070BD00007372635C54
:1005D00073746D3332663130785F6770696F2E6384
:1005E00000000000000001402DE9F04104464648AB
:1005F00000260D46844215D04448844212D0444817
:1006000084420FD0434884420CD04348844209D0EE
:100610004248844206D04248844203D0B22141A0DD
:1006200000F072FEE87888B104280FD028280DD099
:1006300048280BD0142809D0102807D01C2805D032
:10064000182803D0B32137A000F05EFE288818B91F
:10065000B42134A000F058FEE87800F00F07C0067F
:100660000CD5A878012807D0022805D0032803D08C
:10067000BB212CA000F048FEA878074328784FF053
:100680000F0C10F0FF0F4FF0010E1BD021682A88CD
:100690000EFA06F00240824210D1B2000CFA02F3C8
:1006A00021EA030307FA02F1EA781943282A02D063
:1006B000482A02D002E0606100E02061761C082E2A
:1006C000E5D321602888FF281CD96168002000F14B
:1006D00008030EFA03F22B88134093420ED18300D5
:1006E0000CFA03F6B14307FA03F6EB783143282BF3
:1006F00000D16261EB78482B00D12261401C0828B0
:10070000E5D36160BDE8F08100080140000C0140C4
:10071000001001400014014000180140001C01407D
:10072000002001407372635C73746D333266313044
:10073000785F6770696F2E63000000002DE9F0415B
:100740000D46044601287DD0022C7BD0042C79D0A4
:10075000082C77D0A4F5A010103873D0A4F5A01001
:1007600030386FD0A4F5B01040386BD0A4F5B0107D
:10077000C0387DD0574884427AD05748844277D0D9
:100780005648844274D05648844271D055488442B9
:100790006ED0B4F5805F6BD0B4F5EA1F68D0B4F5C5
:1007A000EB1F65D0B4F5004F62D06FF40010C44267
:1007B0005ED0A4F50010801E5AD0A4F50010001FD2
:1007C00056D0A4F50010083852D0A4F50010103807
:1007D0004ED0B4F1201F4BD0A4F50010403847D0C4
:1007E0004148844244D04148844241D040488442F8
:1007F0003ED0404884423BD03F48844238D0B4F594
:10080000011F35D06FF00040C44231D0C01C84427B
:100810002ED0801C84422BD0001D844228D0374823
:10082000844225D035481030844221D033483030BE
:1008300084421DD031487030844219D02F48F030A6
:10084000844200E014E013D02D48844210D02D489B
:1008500084420DD02C4884420AD02C48844207D0D0
:100860002B48844204D040F22A212AA000F04CFDFB
:1008700035B1012D04D040F22B2126A000F044FD1B
:100880002A49002C01DACA6900E04A68630D1E019A
:10089000A3B2C4F30157B340C4F30340032F05D000
:1008A000E6020AD503268640B24307E022F07060D4
:1008B0004A6822F070624A6002E09A4342F0706037
:1008C00005B11843002C02DAC861BDE8F081486028
:1008D000FBE70000000118000002180000031800E8
:1008E00000081A00000C1A0000013000000230005D
:1008F00000043000001120000020200010000080C3
:1009000000020080000400800008008000100080C9
:10091000002000807372635C73746D333266313013
:10092000785F6770696F2E6300000000000001406F
:1009300070B50546274800260C46854216D0264845
:10094000854213D02548854210D0254885420DD0D8
:10095000244885420AD02448854207D0234885424E
:1009600004D04FF48F7122A000F0CEFC012C2AD0CD
:10097000022C28D0042C26D0082C24D0102C22D0D5
:10098000202C20D0402C1ED0802C1CD0B4F5807F91
:1009900019D0B4F5007F16D0B4F5806F13D0B4F53C
:1009A000006F10D0B4F5805F0DD0B4F5005F0AD0B1
:1009B000B4F5804F07D0B4F5004F04D040F21F11BA
:1009C0000BA000F0A1FCA868204200D00126304610
:1009D00070BD000000080140000C01400010014003
:1009E0000014014000180140001C0140002001409B
:1009F0007372635C73746D3332663130785F677025
:100A0000696F2E630000000070B5044611480D4662
:100A1000844216D01048844213D01048844210D02B
:100A20000F4884420DD00F4884420AD00E488442B9
:100A300007D00E48844204D040F279110CA000F097
:100A400063FC25B94FF4BD7109A000F05DFC656140
:100A500070BD000000080140000C01400010014082
:100A60000014014000180140001C0140002001401A
:100A70007372635C73746D3332663130785F6770A4
:100A8000696F2E630000000070B5044611480D46E2
:100A9000844216D01048844213D01048844210D0AB
:100AA0000F4884420DD00F4884420AD00E48844239
:100AB00007D00E48844204D040F269110CA000F027
:100AC00023FC25B94FF4B57109A000F01DFC256188
:100AD00070BD000000080140000C01400010014002
:100AE0000014014000180140001C0140002001409A
:100AF0007372635C73746D3332663130785F677024
:100B0000696F2E6300000000FEE7FEE770470000FB
:100B100070B50446C0780F2528B1012803D075218F
:100B20001FA000F0F1FB6078102803D376211CA0F1
:100B300000F0EAFBA078102803D3772118A000F07A
:100B4000E3FBE0780122F8B118480068617800F40E
:100B5000E060C0F5E060000AC0F10403C540A07881
:100B60009940284008432178000101F1E02181F8F3
:100B70000004207800F01F018A404009800000F145
:100B8000E020C0F8002170BD207800F01F018A40ED
:100B90004009800000F1E020C0F8802170BD000015
:100BA0007372635C6D6973632E6300000CED00E08B
:100BB00010B50446B0F5E06F0FD0B4F5C06F0CD09F
:100BC000B4F5A06F09D0B4F5806F06D0B4F5407FBE
:100BD00003D0632103A000F097FB054804430548B8
:100BE000046010BD7372635C6D6973632E630000F3
:100BF0000000FA050CED00E008B50121102000F01E
:100C0000A5F810208DF8030003208DF8020040F6AF
:100C1000FF70ADF8000069460348FFF7E5FC0121CD
:100C20000248FFF78BFD08BD0010014000023000B4
:100C30002DE9F0414FF47A71B0FBF1F66FF07C02D0
:100C400006FB02F100EBC1006421B0FBF1F46FF090
:100C50001801614300EB81000A21B0FBF1F5694204
:100C600001EB810100EB4107DFF884804FF48071D4
:100C70004046FFF709FF4FF460614046FFF7C4FEAE
:100C8000384600F0C3FB012000F05CFB4FF400711C
:100C90004046FFF7F9FE4FF450614046FFF7B4FEBF
:100CA000284600F0B3FB012000F04CFB4FF48061BC
:100CB0004046FFF7E9FE4FF430614046FFF7A4FEDF
:100CC000204600F0A3FB012000F03CFB4FF4006144
:100CD0004046FFF7D9FE4FF4E0614046FFF794FE2F
:100CE000304600F093FBBDE8F041012000F02ABB44
:100CF000001001407047000070B504460C480D46D6
:100D0000044200D124B940F269410AA000F0FCFA83
:100D10000D4E4DB1012D04D040F26A4105A000F006
:100D2000F3FAF069204301E0F069A043F06170BD7F
:100D3000003601817372635C73746D3332663130D7
:100D4000785F7263632E63000010024070B5044642
:100D50000C480D46044200D124B940F24A410AA091
:100D600000F0D2FA0D4E4DB1012D04D040F24B41AE
:100D700005A000F0C9FAB069204301E0B069A043C2
:100D8000B06170BD0200C0FF7372635C73746D3339
:100D900032663130785F7263632E63000010024068
:100DA00010B501211520FFF7D1FF0121BDE810404A
:100DB0000220FFF7A1BF70470CB500222648009221
:100DC0000192016841F4803101604FF4A063016831
:100DD00001F4003101910099491C0091019911B968
:100DE00000999942F3D10168890333D5012101911A
:100DF0001A490A6842F010020A600A6822F00302E7
:100E00000A600A6842F002020A6041684160416873
:100E10004160416841F480614160416821F47C1186
:100E20004160416841F4E8114160016841F080711E
:100E3000016001688901FCD5416821F0030141602E
:100E4000416841F0020141604168C1F3810102291A
:100E5000FAD10CBD01920CBD0010024000200240EE
:100E6000704700000F4810B5016841F001010160B2
:100E700041680D4A1140416001680C4A114001600F
:100E8000016821F480210160416821F4FE01416084
:100E90004FF41F018160FFF78FFF05494FF000609D
:100EA000086010BD001002400000FFF8FFFFF6FED2
:100EB00008ED00E070B5044624480D46844234D065
:100EC000B4F1804F31D0224884422ED02148844250
:100ED0002BD02148844228D02048844225D0204865
:100EE000844222D01F4884421FD01F4884421CD015
:100EF0001E48844219D01E48844216D01D488442A0
:100F000013D01D48844210D01C4884420DD01C4888
:100F100084420AD01B48844207D01B48844204D034
:100F200040F2293119A000F0EFF955B1012D04D09C
:100F300040F22A3115A000F0E7F9208840F00100C6
:100F400002E0208820F00100208070BD002C0140CC
:100F50000004004000080040000C00400010004069
:100F60000014004000340140004C0140005001409A
:100F70000054014000180040001C004000200040C8
:100F80000040014000440140004801407372635C2E
:100F900073746D3332663130785F74696D2E63001F
:100FA0002DE9F05F444FDFF81481DFF81491DFF88A
:100FB00014A1DFF814B1454E0D460446B8422ED0B8
:100FC000B4F1804F2BD0444529D04C4527D054450F
:100FD00025D05C4523D03E48844220D0B4421ED068
:100FE0003C4884421BD03C48844218D03B48844251
:100FF00015D03B48844212D03A4884420FD03A4838
:1010000084420CD03948844209D03948844206D001
:101010003848844203D0E72137A000F075F968888A
:1010200058B1102809D0202807D0402805D06028C2
:1010300003D0E82130A000F067F9E88848B1B0F5A6
:10104000807F06D0B0F5007F03D0E9212AA000F010
:101050005BF92088BC420AD0B44208D0B4F1804F7A
:1010600005D0444503D04C4501D0544503D120F070
:101070007001688808435C4506D015498C4203D04E
:1010800020F44071E88808432080A888A08528883B
:101090002085BC420AD0B44208D01448844205D00E
:1010A0001348844202D01348844201D1287A208612
:1010B0000120A082BDE8F09F002C01400004004008
:1010C00000080040000C00400010004000340140C7
:1010D00000140040004C0140005001400054014009
:1010E00000180040001C004000200040004001406B
:1010F00000440140004801407372635C73746D33B7
:1011000032663130785F74696D2E6300FEE700004F
:101110000FB4054B10B503A9044A029800F018F863
:1011200010BC5DF814FB00008B13000808000020C1
:1011300002E008C8121F08C1002AFAD170477047A0
:10114000002001E001C1121F002AFBD170470000FE
:101150002DE9FF4F8BB09A460F460546002606E064
:1011600025280BD052460D9990476D1C761C287887
:101170000028F5D10FB03046BDE8F08F0024A0461E
:101180000122604900E0044315F8013F203B02FAC8
:1011900003F00842F7D128782E2817D115F8010F4F
:1011A00044F004042A280ED06FF02F022878A0F112
:1011B000300109290AD808EB880102EB410100EB54
:1011C00001086D1CF2E757F8048B6D1C287869281C
:1011D0003ED006DC0028CDD063280BD0642804D193
:1011E00036E0732810D075284BD052460D999047A1
:1011F000761C85E017F8040B8DF8000000208DF8B0
:101200000100E946012003E057F8049B4FF0FF304E
:1012100061074FF0000401D40AE0641C44450DDA74
:101220008442FADB19F804100029F6D106E0641CA8
:101230008442FCDB19F804100029F8D1264404E0AC
:1012400019F8010B52460D999047641EF8D257E0E9
:1012500001CF4FF00A0B002802DA40422D2102E0B4
:10126000210504D52B218DF82410012103E0E1078D
:1012700005D02021F7E70DF1200908910CE00021AD
:10128000F9E701CF4FF00A0BF9E75946FEF7E6FF01
:1012900001F1300209F8012D0028F6D1ADEB09006B
:1012A00000F1200B600701D44FF00108D84502DDA2
:1012B000A8EB0B0000E000208046002406E009A80F
:1012C0005246005D0D999047641C761C0898844234
:1012D000F5DB04E0302052460D999047761CB8F1BA
:1012E0000001A8F10108F5DC05E019F8010B5246F0
:1012F0000D999047761CBBF10001ABF1010BF4DCBA
:101300006D1C34E7092801000A46014601A0FFF7D9
:10131000FFFEFEE757726F6E6720706172616D6548
:10132000746572732076616C75653A2066696C65C8
:10133000202573206F6E206C696E652025640D0A70
:101340000000000010B503464FF47A7402E0204616
:1013500000F003F85B1EFAD210BD03E00721491E1E
:10136000C9B2FCD2401EF9D270471CB502200090D1
:1013700000208DF8040010208DF8050001208DF864
:1013800006006846FFF74EF81CBD38B504468DF8D8
:10139000000069460320ABBE204638BDFFF700FDC4
:1013A000FFF7A8F800F0A4F8FFF7DFFF00F08CF8D3
:1013B000FFF722FC114C124D124E134F4FF0000854
:1013C000C4F804802068FEF71FFF2A463346FEF764
:1013D000A9FEFEF72AFFFFF72BFC6068401C606047
:1013E000C828EFDB04213846FFF74EFB2D20FFF71E
:1013F000B4FF04213846FFF707FBE1E700000020B7
:10140000C3F5285C8FC2C53F000801402D490A285A
:1014100056D2DFE800F0050D151D252D353D454D53
:10142000C86820F0FF00C860C86840F0C00046E00F
:10143000C86820F0FF00C860C86840F0F9003EE0CE
:10144000C86820F0FF00C860C86840F0A40036E01B
:10145000C86820F0FF00C860C86840F0B0002EE007
:10146000C86820F0FF00C860C86840F0990026E016
:10147000C86820F0FF00C860C86840F092001EE015
:10148000C86820F0FF00C860C86840F0820016E01D
:10149000C86820F0FF00C860C86840F0F8000EE09F
:1014A000C86820F0FF00C860C86840F0800006E00F
:1014B000C86820F0FF00C860C86840F09000C860AD
:1014C000704700000010014008B54FF4C060FFF7FE
:1014D0006FFB07208DF8000001208DF8010000212E
:1014E0008DF802108DF803006846FFF711FB08BD68
:1014F0000EB54EF66020ADF804004720ADF80000B0
:101500000020ADF80600ADF8020069460148FFF77B
:1015100047FD0EBD00040040381500080000002003
:101520000C00000030110008441500080C000020D9
:10153000040400004011000800000000000000004A
:0415400000000000A7
:0400000508000101ED
:00000001FF
