:020000040800F2
:100000002004002001010008890500085D050008A2
:10001000850500087501000855070008000000006C
:1000200000000000000000000000000005060008BD
:1000300079010008000000008B050008F1060008A7
:100040001B0100081B0100081B0100081B01000820
:100050001B0100081B0100081B0100081B01000810
:100060001B0100081B0100081B0100081B01000800
:100070001B0100081B0100081B0100081B010008F0
:100080001B0100081B0100081B0100081B010008E0
:100090001B0100081B0100081B0100081B010008D0
:1000A0001B0100081B0100081B0100081B010008C0
:1000B0001B0100081B0100081B0100081B010008B0
:1000C0001B0100081B0100081B0100081B010008A0
:1000D0001B0100081B0100081B0100081B01000890
:1000E0001B0100081B0100081B010008DFF80CD0F1
:1000F00000F02EF8004800474D0C000820040020B6
:100100000648804706480047FEE7FEE7FEE7FEE7B1
:10011000FEE7FEE7FEE7FEE7FEE7FEE7F50600087E
:10012000ED00000830B50B460146002020220124D6
:1001300009E021FA02F59D4205D303FA02F5491BB5
:1001400004FA02F52844151EA2F10102F1DC30BDCB
:10015000064C074D06E0E06840F0010394E8070014
:1001600098471034AC42F6D3FFF7C4FF8C0C00085C
:10017000AC0C000800BFFEE7704700001CB5102063
:100180008DF8070003208DF806003F20ADF804002D
:1001900001A9084800F012F848208DF80300032058
:1001A0008DF802000003ADF800006946024800F037
:1001B00005F81CBD00080140001001402DE9F05F6A
:1001C00005460C464FF00009CA4600260027B046F7
:1001D000B3465948854211D0584885420ED05848F8
:1001E00085420BD05748854208D05748854205D0F4
:1001F0005648854202D05648854200D103E0B221DC
:1002000054A000F0A5FBE078A0B1E078042811D05C
:10021000E07828280ED0E07848280BD0E078142821
:1002200008D0E078102805D0E0781C2802D0E078CB
:10023000182800D103E0B32146A000F089FB00207C
:1002400010B9208800B103E0B42142A000F080FB87
:10025000E07800F00F09E07800F0100080B1A0789D
:10026000012805D0A078022802D0A078032800D168
:1002700003E0BB2137A000F06BFBA07840EA09093E
:10028000207838B3D5F8008000261FE0012000FA5E
:1002900006F7208800EA070ABA4516D1B7000F20F2
:1002A00000FA07FB28EA0B0809FA07F040EA0808F9
:1002B000E078282803D10120B040686105E0E078AB
:1002C000482802D10120B0402861761C082EDDD3D9
:1002D000C5F800802088FF282BDDD5F80480002693
:1002E00023E006F10800012101FA00F7208800EA66
:1002F000070ABA4518D1B7000F2000FA07FB28EA11
:100300000B0809FA07F040EA0808E078282803D12A
:1003100006F1080081406961E078482804D106F1BF
:100320000800012181402961761C082ED9D3C5F827
:100330000480BDE8F09F000000080140000C01406F
:10034000001001400014014000180140001C014051
:10035000002001407372635C73746D333266313018
:10036000785F6770696F2E630000000070B5054606
:100370000C4600262848854211D0284885420ED0D8
:10038000274885420BD02748854208D02648854219
:1003900005D02648854202D02548854200D104E098
:1003A0004FF48F7123A000F0D3FA012C25D0022C3A
:1003B00023D0042C21D0082C1FD0102C1DD0202C91
:1003C0001BD0402C19D0802C17D0B4F5807F14D0CE
:1003D000B4F5007F11D0B4F5806F0ED0B4F5006F86
:1003E0000BD0B4F5805F08D0B4F5005F05D0B4F54C
:1003F000804F02D0B4F5004F00D104E040F21F114D
:100400000CA000F0A5FAA868204008B1012600E081
:100410000026304670BD000000080140000C01407D
:10042000001001400014014000180140001C014070
:10043000002001407372635C73746D333266313037
:10044000785F6770696F2E630000000070B5044626
:100450000D461348844211D0124884420ED01248EF
:1004600084420BD01148844208D01148844205D000
:100470001048844202D01048844200D104E040F287
:1004800079110EA000F064FA002008B905B104E06B
:100490004FF4BD7109A000F05BFA656170BD00000A
:1004A00000080140000C0140001001400014014010
:1004B00000180140001C0140002001407372635C81
:1004C00073746D3332663130785F6770696F2E6395
:1004D0000000000070B504460D461348844211D058
:1004E000124884420ED0124884420BD011488442F4
:1004F00008D01148844205D01048844202D01048E8
:10050000844200D104E040F269110EA000F020FA0C
:10051000002008B905B104E04FF4B57109A000F05E
:1005200017FA256170BD000000080140000C014071
:10053000001001400014014000180140001C01405F
:10054000002001407372635C73746D333266313026
:10055000785F6770696F2E630000000000BFFEE7E0
:1005600070B504460D461646206828B93246214625
:10057000284600F031FA04E032462146284600F0D1
:10058000BFFA70BD00BFFEE77047704770B5044604
:100590000D461048204008B904B104E040F24A4139
:1005A0000DA000F0D5F90DB1012D00D104E040F20D
:1005B0004B4109A000F0CCF92DB10C4880692043D3
:1005C0000A49886104E009488069A04307498861B5
:1005D00070BD00000200C0FF7372635C73746D3302
:1005E00032663130785F7263632E63000010024020
:1005F00010B501211020FFF7C9FF01210420FFF7EA
:10060000C5FF10BD704710B500F002F810BD000026
:100610000CB50020019000903348006840F4803011
:100620003149086000BF3048006800F40030009095
:100630000198401C0190009818B90198B0F5A06F7E
:10064000F1D12948006800F4003010B10120009079
:1006500001E0002000900098012843D12348006861
:1006600040F01000214908600846006820F00300AF
:1006700008600846006840F0020008601A484068B8
:10068000194948600846406848600846406840F498
:10069000806048600846406820F47C104860084646
:1006A000406840F4E81048600846006840F08070F8
:1006B000086000BF0C48006800F000700028F9D006
:1006C0000948406820F00300074948600846406830
:1006D00040F00200486000BF0348406800F00C0092
:1006E0000828F9D10CBD0000001002400020024093
:1006F0007047000010B51348006840F00100114930
:10070000086008464068104908400E49486008469D
:1007100000680E4908400B4908600846006820F44C
:10072000802008600846406820F4FE0048604FF4CE
:100730001F008860FFF767FF4FF000600449086002
:1007400010BD0000001002400000FFF8FFFFF6FEA1
:1007500008ED00E000BFFEE70FB4054B10B503A99C
:10076000044A029800F018F810BC5DF814FB000071
:10077000C70900081800002002E008C8121F08C1BD
:10078000002AFAD170477047002001E001C1121F12
:10079000002AFBD1704700002DE9FF4F8BB09A462D
:1007A0000F460546002606E025280BD052460D9937
:1007B00090476D1C761C28780028F5D10FB0304684
:1007C000BDE8F08F0024A0460122604900E0044308
:1007D00015F8013F203B02FA03F00842F7D12878D0
:1007E0002E2817D115F8010F44F004042A280ED042
:1007F0006FF02F022878A0F1300109290AD808EB00
:10080000880102EB410100EB01086D1CF2E757F88B
:10081000048B6D1C287869283ED006DC0028CDD0DA
:1008200063280BD0642804D136E0732810D07528D3
:100830004BD052460D999047761C85E017F8040B73
:100840008DF8000000208DF80100E946012003E04A
:1008500057F8049B4FF0FF3061074FF0000401D4BC
:100860000AE0641C44450DDA8442FADB19F80410EE
:100870000029F6D106E0641C8442FCDB19F8041060
:100880000029F8D1264404E019F8010B52460D99CD
:100890009047641EF8D257E001CF4FF00A0B0028B2
:1008A00002DA40422D2102E0210504D52B218DF8EA
:1008B0002410012103E0E10705D02021F7E70DF125
:1008C000200908910CE00021F9E701CF4FF00A0B55
:1008D000F9E75946FFF726FC01F1300209F8012D2E
:1008E0000028F6D1ADEB090000F1200B600701D420
:1008F0004FF00108D84502DDA8EB0B0000E0002016
:100900008046002406E009A85246005D0D999047F4
:10091000641C761C08988442F5DB04E030205246C3
:100920000D999047761CB8F10001A8F10108F5DC9B
:1009300005E019F8010B52460D999047761CBBF162
:100940000001ABF1010BF4DC6D1C34E70928010058
:1009500004460D462A46214602A0FFF7FDFE00BFD1
:10096000FEE7000057726F6E6720706172616D65FF
:10097000746572732076616C75653A2066696C6582
:10098000202573206F6E206C696E652025640D0A2A
:100990000000000010B5044603E04FF47A7000F048
:1009A00005F8201EA4F10104F7D110BD06E00721CF
:1009B00000BF0A1EA1F10103D9B2FAD1021EA0F1B3
:1009C0000100F4D1704738B504468DF8000069463F
:1009D0000320ABBE204638BD2DE9F04106460F4648
:1009E00014463068002842D100253DE03F214148AF
:1009F000FFF72CFD404830F8250081B23D48FFF755
:100A000069FD4FF000082BE04FF480513B48FFF7A1
:100A1000ADFC68B9206858B1002020603968481CD6
:100A200000EBD0714910A0EB41013960BDE8F081C5
:100A30004FF400513148FFF799FC60B9206850B17C
:100A4000002020603168481C00EBD0714910A0EBF9
:100A500041013160EAE70520FFF79CFF08F101083A
:100A6000B8F1140FD0DB6D1C062DBFDB40E0002574
:100A70003CE03F211F48FFF7E9FC1F4830F8250004
:100A800081B21C48FFF726FD4FF000082AE04FF422
:100A900080511A48FFF76AFC60B9206850B1002005
:100AA00020603968481C00EBD0714910A0EB41016F
:100AB0003960BBE74FF400511048FFF757FC60B9AD
:100AC000206850B1002020603168481C00EBD071D4
:100AD0004910A0EB41013160A8E70F20FFF75AFF52
:100AE00008F10108B8F1140FD1DB6D1C062DC0DB35
:100AF00000BF9BE7000801400000002000100140FB
:100B00002DE9F04106460F461546306800284BD1C6
:100B1000002446E03F214A48FFF798FC494830F856
:100B2000240081B24648FFF7D5FCC4F10500454AD0
:100B300032F8200081B24248FFF7CCFC4FF00008A9
:100B40002BE04FF480514048FFF710FC68B928684B
:100B500058B1002028603968481C00EBD07149105A
:100B6000A0EB41013960BDE8F0814FF400513648F7
:100B7000FFF7FCFB60B9286850B10020286031689D
:100B8000481C00EBD0714910A0EB41013160EAE74D
:100B90000520FFF7FFFE08F10108B8F1140FD0DBC4
:100BA000641C062CB6DB49E0002445E03F212448C4
:100BB000FFF74CFC234830F8240081B22048FFF7AF
:100BC00089FCC4F105001F4A32F8200081B21C489C
:100BD000FFF780FC4FF000082AE04FF480511A48DC
:100BE000FFF7C4FB60B9286850B10020286039685D
:100BF000481C00EBD0714910A0EB41013960B2E70D
:100C00004FF400511048FFF7B1FB60B9286850B1AC
:100C1000002028603168481C00EBD0714910A0EB1F
:100C2000410131609FE70F20FFF7B4FE08F1010892
:100C3000B8F1140FD1DB641C062CB7DB00BF92E7C0
:100C40000008014000000020001001400EB5002007
:100C5000029001900090FFF7CBFCFFF78FFA12E0B3
:100C60004FF480510848FFF781FB38B14FF4005131
:100C70000548FFF77BFB08B1012000906A4601A9F7
:100C800002A8FFF76DFCEBE700100140AC0C000878
:100C9000000000201C00000078070008C80C0008B5
:100CA0001C00002004040000880700080100000068
:100CB0000200000004000000080000001000000016
:080CC00020000000000000000C
:0400000508000101ED
:00000001FF
