:020000040800F2
:1000000040040020010100080D0D0008090D000842
:100010000B0D000865070008892500080000000096
:100020000000000000000000000000005115000862
:100030006707000800000000AD0F0008FD1500086C
:100040001B0100081B0100081B0100081B01000820
:100050001B0100081B0100081B0100081B01000810
:100060001B0100081B0100081B0100081B01000800
:100070001B0100081B0100081B0100081B010008F0
:100080001B0100081B0100081B0100081B010008E0
:100090001B0100081B0100081B0100081B010008D0
:1000A0001B0100081B0100081B0100081B010008C0
:1000B0001B0100081B010008511600081B01000865
:1000C0001B0100081B0100081B0100081B010008A0
:1000D0001B010008E52200081B0100081B010008A5
:1000E0001B0100081B0100081B010008DFF80CD0F1
:1000F00000F088F8004800472D2800084004002040
:100100000648804706480047FEE7FEE7FEE7FEE7B1
:10011000FEE7FEE7FEE7FEE7FEE7FEE70116000862
:10012000ED000008C10F80EAE0700844CA0796237A
:10013000002100F038B800F0004220F00040C10D6E
:10014000C0F3160040F400007F2901DA0020704758
:10015000962903DCC1F19601C84001E09639884038
:10016000002AF4D04042704730B50B4601460020CB
:100170002022012409E021FA02F59D4205D303FA69
:1001800002F5491B04FA02F52844151EA2F10102EA
:10019000F1DC30BD0029A8BF7047401C490008BFF2
:1001A00020F00100704710B4B0FA80FC00FA0CF0A7
:1001B00050EA010404BF10BC704749B1CCF12004DF
:1001C00021FA04F411FA0CF118BF0121214308436C
:1001D000A3EB0C01CB1D4FEA00614FEA102042BF98
:1001E000002010BC704700EBC35010440029A4BF8E
:1001F00010BC7047401C490008BF20F0010010BC33
:1002000070470000064C074D06E0E06840F001032F
:1002100094E8070098471034AC42F6D3FFF76AFF22
:10022000782B0008982B000810B586B000214FF4F9
:100230006020CDE902018DF804100120144C0091DA
:100240008DF805108DF810006946204600F0C8F8BA
:10025000072301220021204600F062F901212046F7
:1002600000F018F8204600F0FFF9204600F090F862
:100270000028FAD1204600F04FFA204600F03CF862
:100280000028FAD10121204600F014FA06B010BD72
:100290000024014070B504460F480D4684420AD040
:1002A0000E48844207D00E48844204D04FF4977120
:1002B0000CA002F067FA55B1012D04D040F22F11C5
:1002C00008A002F05FFAA06840F0010002E0A06818
:1002D00020F00100A06070BD002401400028014012
:1002E000003C01407372635C73746D33326631306D
:1002F000785F6164632E630070B504460A48002588
:1003000084420AD00948844207D00948844204D074
:100310004FF4D97107A002F035FAA068400700D564
:100320000125284670BD000000240140002801403E
:10033000003C01407372635C73746D33326631301C
:10034000785F6164632E630010B5044608488442F8
:100350000AD00848844207D00748844204D040F2BB
:10036000C72106A002F00EFAE06C80B210BD0000BA
:100370000024014000280140003C01407372635C8E
:1003800073746D3332663130785F6164632E63005D
:1003900070B504460A48002584420AD009488442C0
:1003A00007D00948844204D04FF4C67107A002F078
:1003B000E9F9A068000700D50125284670BD0000B6
:1003C0000024014000280140003C01407372635C3E
:1003D00073746D3332663130785F6164632E63000D
:1003E0002DE9F047054644480C46854209D043486C
:1003F000854206D04248854203D0DF2141A002F069
:10040000C1F94FF40036206877004FF4C0284FF44C
:100410000029D0B1B0F5803F17D0B04215D0B0F56B
:10042000403F12D0B84210D0B0F5A02F0DD04045BB
:100430000BD0B0F5E02F08D0484506D0B0F5102F0E
:1004400003D0E0212FA002F09DF9207928B10128E6
:1004500003D0E1212BA002F095F9607928B10128A1
:1004600003D0E22127A002F08DF9A068A0B1B0422C
:1004700012D0B84210D040450ED048450CD0B0F54F
:10048000202F09D0B0F5402F06D0B0F5602F03D053
:10049000E3211CA002F076F9E06830B1B0F5006FFE
:1004A00003D0E42117A002F06DF9207C401E0F2834
:1004B00003D9E52113A002F065F96868164922798D
:1004C0000840216840EA022001436960A868134996
:1004D0000840D4E902211143627940EA4200014315
:1004E000A960E86A217C20F47000491EC9B240EA84
:1004F0000150E862BDE8F087002401400028014077
:10050000003C01407372635C73746D33326631304A
:10051000785F6164632E6300FFFEF0FFFDF7F1FF7B
:100520002DE9F041054648481E4617460C468542CF
:100530000AD04648854207D04548854204D040F25B
:10054000522144A002F01EF934B3012C24D0022C15
:1005500022D0032C20D0042C1ED0052C1CD0062C1D
:100560001AD0072C18D0082C16D0092C14D00A2C1D
:1005700012D00B2C10D00C2C0ED00D2C0CD00E2C1D
:100580000AD00F2C08D0102C06D0112C04D040F229
:10059000532130A002F0F6F8A7F10108B8F10F0FCF
:1005A00004D94FF415712BA002F0ECF896B1012E8E
:1005B00010D0022E0ED0032E0CD0042E0AD0052E01
:1005C00008D0062E06D0072E04D040F2552121A0D7
:1005D00002F0D8F80722092C0AD9E968A4F10A0028
:1005E00000EB40008240914386403143E96007E0E0
:1005F000296904EB440082409143864031432961DC
:100600001F21072F09D26A6B08EB880081408A43BB
:10061000844022436A63BDE8F0810D2F09D22A6B22
:10062000FF1F07EB870081408A43844022432A63EF
:10063000F1E7EA6A0D3F07EB870081408A43844077
:100640002243EA62E7E7000000240140002801405D
:10065000003C01407372635C73746D3332663130F9
:10066000785F6164632E630010B5044609488442D4
:100670000AD00948844207D00848844204D04FF485
:10068000BF7107A002F07EF8A06840F00800A060EB
:1006900010BD00000024014000280140003C014042
:1006A0007372635C73746D3332663130785F61648A
:1006B000632E630070B504460F480D4684420AD08D
:1006C0000E48844207D00E48844204D04FF4E671AD
:1006D0000CA002F057F855B1012D04D040F2CD1115
:1006E00008A002F04FF8A06840F4A00002E0A06863
:1006F00020F4A000A06070BD00240140002801404B
:10070000003C01407372635C73746D333266313048
:10071000785F6164632E630010B504460948844223
:100720000AD00948844207D00848844204D04FF4D4
:10073000D27107A002F026F8A06840F00400A06083
:1007400010BD00000024014000280140003C014091
:100750007372635C73746D3332663130785F6164D9
:10076000632E6300FEE77047F8B518258DF8035037
:1007700003248DF80240C020184EADF800006946F1
:10078000304600F031F88DF803508DF802407120AA
:10079000134DADF800006946284600F025F81020FA
:1007A0008DF803008DF802404FF4E640ADF80000EC
:1007B0006946284600F018F80120ADF80000002036
:1007C0008DF803008DF802406946304600F00CF8C1
:1007D0000121044800F0B2F8F8BD00000008014013
:1007E000000C014000081A002DE9F041044646487B
:1007F00000260D46844215D04448844212D0444815
:1008000084420FD0434884420CD04348844209D0EC
:100810004248844206D04248844203D0B22141A0DB
:1008200001F0B0FFE87888B104280FD028280DD057
:1008300048280BD0142809D0102807D01C2805D030
:10084000182803D0B32137A001F09CFF288818B9DD
:10085000B42134A001F096FFE87800F00F07C0063D
:100860000CD5A878012807D0022805D0032803D08A
:10087000BB212CA001F086FFA878074328784FF011
:100880000F0C10F0FF0F4FF0010E1BD021682A88CB
:100890000EFA06F00240824210D1B2000CFA02F3C6
:1008A00021EA030307FA02F1EA781943282A02D061
:1008B000482A02D002E0606100E02061761C082E28
:1008C000E5D321602888FF281CD96168002000F149
:1008D00008030EFA03F22B88134093420ED18300D3
:1008E0000CFA03F6B14307FA03F6EB783143282BF1
:1008F00000D16261EB78482B00D12261401C0828AE
:10090000E5D36160BDE8F08100080140000C0140C2
:10091000001001400014014000180140001C01407B
:10092000002001407372635C73746D333266313042
:10093000785F6770696F2E63000000002DE9F04159
:100940000D46044601287DD0022C7BD0042C79D0A2
:10095000082C77D0A4F5A010103873D0A4F5A010FF
:1009600030386FD0A4F5B01040386BD0A4F5B0107B
:10097000C0387DD0574884427AD05748844277D0D7
:100980005648844274D05648844271D055488442B7
:100990006ED0B4F5805F6BD0B4F5EA1F68D0B4F5C3
:1009A000EB1F65D0B4F5004F62D06FF40010C44265
:1009B0005ED0A4F50010801E5AD0A4F50010001FD0
:1009C00056D0A4F50010083852D0A4F50010103805
:1009D0004ED0B4F1201F4BD0A4F50010403847D0C2
:1009E0004148844244D04148844241D040488442F6
:1009F0003ED0404884423BD03F48844238D0B4F592
:100A0000011F35D06FF00040C44231D0C01C844279
:100A10002ED0801C84422BD0001D844228D0374821
:100A2000844225D035481030844221D033483030BC
:100A300084421DD031487030844219D02F48F030A4
:100A4000844200E014E013D02D48844210D02D4899
:100A500084420DD02C4884420AD02C48844207D0CE
:100A60002B48844204D040F22A212AA001F08AFEB9
:100A700035B1012D04D040F22B2126A001F082FED9
:100A80002A49002C01DACA6900E04A68630D1E0198
:100A9000A3B2C4F30157B340C4F30340032F05D0FE
:100AA000E6020AD503268640B24307E022F07060D2
:100AB0004A6822F070624A6002E09A4342F0706035
:100AC00005B11843002C02DAC861BDE8F081486026
:100AD000FBE70000000118000002180000031800E6
:100AE00000081A00000C1A0000013000000230005B
:100AF00000043000001120000020200010000080C1
:100B000000020080000400800008008000100080C7
:100B1000002000807372635C73746D333266313011
:100B2000785F6770696F2E6300000000000001406D
:100B300070B50546274800260C46854216D0264843
:100B4000854213D02548854210D0254885420DD0D6
:100B5000244885420AD02448854207D0234885424C
:100B600004D04FF48F7122A001F00CFE012C2AD08A
:100B7000022C28D0042C26D0082C24D0102C22D0D3
:100B8000202C20D0402C1ED0802C1CD0B4F5807F8F
:100B900019D0B4F5007F16D0B4F5806F13D0B4F53A
:100BA000006F10D0B4F5805F0DD0B4F5005F0AD0AF
:100BB000B4F5804F07D0B4F5004F04D040F21F11B8
:100BC0000BA001F0DFFDA868204200D001263046CE
:100BD00070BD000000080140000C01400010014001
:100BE0000014014000180140001C01400020014099
:100BF0007372635C73746D3332663130785F677023
:100C0000696F2E630000000070B5044611480D4660
:100C1000844216D01048844213D01048844210D029
:100C20000F4884420DD00F4884420AD00E488442B7
:100C300007D00E48844204D040F279110CA001F094
:100C4000A1FD25B94FF4BD7109A001F09BFD6561BF
:100C500070BD000000080140000C01400010014080
:100C60000014014000180140001C01400020014018
:100C70007372635C73746D3332663130785F6770A2
:100C8000696F2E630000000070B5044611480D46E0
:100C9000844216D01048844213D01048844210D0A9
:100CA0000F4884420DD00F4884420AD00E48844237
:100CB00007D00E48844204D040F269110CA001F024
:100CC00061FD25B94FF4B57109A001F05BFD256107
:100CD00070BD000000080140000C01400010014000
:100CE0000014014000180140001C01400020014098
:100CF0007372635C73746D3332663130785F677022
:100D0000696F2E6300000000FEE7FEE770470000F9
:100D100070B5154D4FF4805421462846FFF774FFF7
:100D2000052212492A2000F0CBFB0121212000F0EE
:100D3000F1FB0121222000F0EDFB2821252000F00D
:100D4000E9FB0421312000F0E5FB0F21262000F013
:100D5000E1FB0F21202000F0DDFB21462846BDE805
:100D60007040FFF791BF0000000C014035000020EB
:100D700070B5144C05464FF4805631462046FFF7B7
:100D800083FF02212046FFF7D3FE0028F9D1314628
:100D90002046FFF739FF072000F074FB04460146A8
:100DA000272000F0B7FB60060AD5042229466120FF
:100DB00000F03EFBFF21E22000F0ACFB402070BDC4
:100DC000002070BD000C014070B50446C0780F25AE
:100DD00028B1012803D075211FA001F0D3FC607851
:100DE000102803D376211CA001F0CCFCA078102899
:100DF00003D3772118A001F0C5FCE0780122F8B1F7
:100E000018480068617800F4E060C0F5E060000A0E
:100E1000C0F10403C540A0789940284008432178D8
:100E2000000101F1E02181F80004207800F01F01A9
:100E30008A404009800000F1E020C0F8002170BD28
:100E4000207800F01F018A404009800000F1E02076
:100E5000C0F8802170BD00007372635C6D697363BC
:100E60002E6300000CED00E010B50446B0F5E06F15
:100E70000FD0B4F5C06F0CD0B4F5A06F09D0B4F5A5
:100E8000806F06D0B4F5407F03D0632103A001F04A
:100E900079FC054804430548046010BD7372635C27
:100EA0006D6973632E6300000000FA050CED00E02D
:100EB00008B50121102000F0A5F810208DF80300DE
:100EC00003208DF8020040F6FF70ADF8000069467F
:100ED0000348FFF789FC01210248FFF72FFD08BDF9
:100EE00000100140000230002DE9F0414FF47A710A
:100EF000B0FBF1F66FF07C0206FB02F100EBC100E3
:100F00006421B0FBF1F46FF01801614300EB810044
:100F10000A21B0FBF1F5694201EB810100EB4107C9
:100F2000DFF884804FF480714046FFF7ADFE4FF448
:100F300060614046FFF768FE384601F035FD01204C
:100F400001F03EFC4FF400714046FFF79DFE4FF468
:100F500050614046FFF758FE284601F025FD01206C
:100F600001F02EFC4FF480614046FFF78DFE4FF4F8
:100F700030614046FFF748FE204601F015FD012094
:100F800001F01EFC4FF400614046FFF77DFE4FF478
:100F9000E0614046FFF738FE304601F005FDBDE850
:100FA000F041012001F00CBC00100140704700002E
:100FB00070B504460C480D46044200D124B940F2F5
:100FC00069410AA001F0DEFB0D4E4DB1012D04D0A8
:100FD00040F26A4105A001F0D5FBF069204301E031
:100FE000F069A043F06170BD003601817372635CEB
:100FF00073746D3332663130785F7263632E6300D1
:101000000010024070B504460C480D46044200D161
:1010100024B940F24A410AA001F0B4FB0D4E4DB193
:10102000012D04D040F24B4105A001F0ABFBB069AB
:10103000204301E0B069A043B06170BD0200C0FF71
:101040007372635C73746D3332663130785F7263D0
:10105000632E63000010024010B5012140F20D2004
:10106000FFF7D0FF0121BDE810400620FFF7A0BF29
:1010700070B504460F480D4684420AD00E4884429B
:1010800007D00E48844204D04FF4D7710CA001F071
:1010900079FB55B1012D04D040F2AF1108A001F049
:1010A00071FB208840F0400002E0208820F04000E2
:1010B000208070BD0030014000380040003C0040FE
:1010C0007372635C73746D3332663130785F737042
:1010D000692E630070B50546154800260C4685420A
:1010E0000AD01448854207D01348854204D040F204
:1010F000023112A001F046FB802C12D0402C10D0FF
:10110000202C0ED0102C0CD0082C0AD0042C08D087
:10111000022C06D0012C04D040F2033107A001F0CC
:1011200031FB2889204200D00126304670BD0000E6
:101130000030014000380040003C00407372635CA6
:1011400073746D3332663130785F7370692E63006B
:1011500010B50446074884420AD00748844207D0A5
:101160000648844204D040F2362105A001F00AFB73
:10117000A08910BD0030014000380040003C004014
:101180007372635C73746D3332663130785F737081
:10119000692E630070B5044608480D4684420AD0A3
:1011A0000748844207D00748844204D040F22621F1
:1011B00005A001F0E7FAA58170BD000000300140F4
:1011C00000380040003C00407372635C73746D3300
:1011D00032663130785F7370692E630070B50546F2
:1011E00042480C46854209D04148854206D04148D4
:1011F000854203D0A32140A001F0C4FA208860B149
:10120000B0F5806F09D0B0F5004F06D0B0F5404F73
:1012100003D0A62138A001F0B5FA6088B0F5827F2E
:1012200004D018B1A72134A001F0ACFAA088B0F521
:10123000006F04D018B1A8212FA001F0A3FAE08814
:1012400028B1022803D0A9212BA001F09BFA208904
:1012500028B1012803D0AA2127A001F093FA6089C0
:10126000B0F5007F04D018B1AB2123A001F08AFAB9
:10127000A08988B108280FD010280DD018280BD0CD
:10128000202809D0282807D0302805D0382803D0B6
:10129000AC2119A001F076FAE08928B1802803D0AA
:1012A000AD2115A001F06EFA208A18B9AE2112A066
:1012B00001F068FA288821886288E3881143A288AF
:1012C00000F441501A4311432289114362891143AA
:1012D000A2891143E289114301432980A88B20F49C
:1012E0000060A883208A288270BD00000030014081
:1012F00000380040003C00407372635C73746D33CF
:1013000032663130785F7370692E63002DE9F041E9
:1013100086B001211D20FFF775FE01210E03304626
:10132000FFF770FEE020ADF8000001258DF80250B7
:101330001820DFF8B8808DF8030069464046FFF7B3
:1013400053FA1024ADF800408DF802508DF8034098
:1013500069464046FFF748FA0220ADF800008DF8D4
:1013600002504820224F8DF8030069463846FFF7A7
:101370003BFAADF800608DF803408DF802506946E5
:101380003846FFF731FA4FF44040ADF800008DF8D1
:1013900002508DF8034069461648FFF725FA1021E0
:1013A0004046FFF771FC0020ADF804004FF4827155
:1013B000ADF80610ADF80C00ADF81040ADF808001F
:1013C0006101ADF80A00ADF8120007200A4CADF833
:1013D0000E10ADF8140001A92046FFF7FFFE012111
:1013E0002046FFF745FE06B0BDE8F0810008014049
:1013F000000C0140001001400030014070B50B4C62
:10140000054602212046FFF765FE0028F9D029464F
:101410002046FFF7BFFE01212046FFF75BFE0028B4
:10142000F9D02046FFF794FEC0B270BD00300140F5
:101430002DE9F0410E46044615464FF480510F4801
:10144000FFF7E2FBDFF8388010214046FFF7DCFBB6
:101450002046FFF7D3FF0746002405E0FF20FFF7F3
:10146000CDFF3055641CE4B2AC42F7D310214046A6
:10147000FFF70AFC3846BDE8F0810000000C01408F
:101480000008014070B505464FF480510A48FFF747
:10149000BBFB0A4C10212046FFF7B6FB2846FFF79E
:1014A000ADFFFF20FFF7AAFF054610212046FFF7FA
:1014B000EBFB284670BD0000000C01400008014015
:1014C0002DE9F0410D46044616464FF480510F4871
:1014D000FFF79AFBDFF8388010214046FFF794FBB6
:1014E0002046FFF78BFF0746002405E015F8010BA7
:1014F000FFF784FF641CE4B2B442F7D310214046E6
:10150000FFF7C2FB3846BDE8F0810000000C014047
:101510000008014070B50E4605464FF480510A4858
:10152000FFF772FB094C10212046FFF76DFB2846A0
:10153000FFF764FF05463046FFF760FF10212046A5
:10154000FFF7A2FB284670BD000C014000080140D7
:10155000704700000CB500222648009201920168F5
:1015600041F4803101604FF4A063016801F400315F
:1015700001910099491C0091019911B90099994272
:10158000F3D10168890333D5012101911A490A6811
:1015900042F010020A600A6822F003020A600A6838
:1015A00042F002020A60416841604168416041685E
:1015B00041F480614160416821F47C1141604168DF
:1015C00041F4E8114160016841F0807101600168F7
:1015D0008901FCD5416821F003014160416841F077
:1015E000020141604168C1F381010229FAD10CBDB9
:1015F00001920CBD00100240002002407047000024
:101600000F4810B5016841F00101016041680D4AC1
:101610001140416001680C4A11400160016821F4E9
:1016200080210160416821F4FE0141604FF41F01F7
:101630008160FFF78FFF05494FF00060086010BD23
:10164000001002400000FFF8FFFFF6FE08ED00E08A
:1016500010B50121064800F011F8064C0121204682
:10166000FFF728F82046FEF76FFE0349088010BDFB
:1016700000080040002401400400002070B504462A
:1016800021480D46844234D0B4F1804F31D01F48F8
:1016900084422ED01E4884422BD01E48844228D03B
:1016A0001D48844225D01D48844222D01C488442D3
:1016B0001FD01C4884421CD01B48844219D01B48B0
:1016C000844216D01A48844213D01A48844210D05B
:1016D000194884420DD0194884420AD018488442DF
:1016E00007D01848844204D040F6772116A001F0B4
:1016F00049F8280A00D125B940F6782112A001F056
:1017000041F8E843208270BD002C014000040040F5
:1017100000080040000C0040001000400014004091
:1017200000340140004C0140005001400054014091
:1017300000180040001C0040002000400040014014
:1017400000440140004801407372635C73746D3360
:1017500032663130785F74696D2E630070B504466F
:1017600024480D46844234D0B4F1804F31D0224811
:1017700084422ED0214884422BD02148844228D054
:101780002048844225D02048844222D01F488442E9
:101790001FD01F4884421CD01E48844219D01E48C6
:1017A000844216D01D48844213D01D48844210D074
:1017B0001C4884420DD01C4884420AD01B488442F5
:1017C00007D01B48844204D040F2293119A000F010
:1017D000D9FF55B1012D04D040F22A3115A000F0F7
:1017E000D1FF208840F0010002E0208820F00100B5
:1017F000208070BD002C0140000400400008004023
:10180000000C004000100040001400400034014073
:10181000004C0140005001400054014000180040BD
:10182000001C0040002000400040014000440140F6
:10183000004801407372635C73746D3332663130FB
:10184000785F74696D2E630070B5044628481646AB
:101850000D46844234D0B4F1804F31D025488442C3
:101860002ED0254884422BD02448844228D02448B6
:10187000844225D02348844222D0234884421FD06A
:10188000224884421CD02248844219D021488442F4
:1018900016D02148844213D02048844210D02048DA
:1018A00084420DD01F4884420AD01F48844207D08A
:1018B0001E48844204D040F26B311DA000F062FF4C
:1018C000280A00D125B94FF45B7119A000F05AFF26
:1018D0004EB1012E04D040F26D3115A000F052FF40
:1018E000A089284301E0A089A843A08170BD000021
:1018F000002C01400004004000080040000C0040A3
:10190000001000400014004000340140004C014031
:10191000005001400054014000180040001C0040ED
:1019200000200040004001400044014000480140C8
:101930007372635C73746D3332663130785F7469CF
:101940006D2E63002DE9F05FDFF86491DFF864A18C
:10195000DFF864B10D46044648452CD0B4F1804F01
:1019600029D05648844226D05548844223D0554831
:10197000844220D054451ED0534884421BD0534843
:10198000844218D05248844215D05248844212D022
:10199000514884420FD0514884420CD05C450AD053
:1019A0004F48844207D04F48844204D04FF48E7190
:1019B0004DA000F0E7FE288870B110280CD0202838
:1019C0000AD0302808D0602806D0702804D040F211
:1019D0001D1145A000F0D6FE688830B1012804D062
:1019E0004FF48F7140A000F0CDFE288930B102285D
:1019F00004D040F21F113CA000F0C4FE208C20F067
:101A000001002084218CA788208B2A8820F0730075
:101A100042EA0008288921F002016E880843064343
:101A20004C4509D0544507D05C4505D02C4884422C
:101A300002D02C48844233D1A88830B1042804D085
:101A40004FF49E7128A000F09DFE688930B10828EF
:101A500004D040F23D1124A000F094FEE889B0F5D6
:101A6000007F05D020B14FF49F711FA000F08AFEC7
:101A7000A889B0F5807F05D020B140F23F111AA0AF
:101A800000F080FE26F008016889AE88084320F047
:101A90000400064327F44071A889EF8908430743EF
:101AA000A780A4F81880E888A0862684BDE8F09F67
:101AB000002C01400034014000400140000400407F
:101AC00000080040000C0040004C01400050014064
:101AD0000054014000180040001C0040002000405D
:101AE00000440140004801407372635C73746D33BD
:101AF00032663130785F74696D2E630070B50446CC
:101B000020480D4684422ED0B4F1804F2BD01E4881
:101B1000844228D01D48844225D01D48844222D0CA
:101B20001C4884421FD01C4884421CD01B4884425D
:101B300019D01B48844216D01A48844213D01A4840
:101B4000844210D0194884420DD0194884420AD0EA
:101B50001848844207D01848844204D040F2E95122
:101B600016A000F00FFE082D05D025B140F2EA5175
:101B700012A000F007FE208B20F0080028432083ED
:101B800070BD0000002C014000040040000800402F
:101B9000000C004000340140004C01400050014066
:101BA0000054014000180040001C0040002000408C
:101BB0000040014000440140004801407372635CF2
:101BC00073746D3332663130785F74696D2E6300E3
:101BD0002DE9F05FDFF850A1DFF850B10D46044663
:101BE00050451BD0B4F1804F18D05148844215D0D5
:101BF0005048844212D0504884420FD05C450DD0EA
:101C00004E4884420AD04E48844207D04D48844210
:101C100004D040F26F114CA000F0B4FD288870B1E0
:101C200010280CD020280AD0302808D0602806D0F0
:101C3000702804D04FF4B87143A000F0A3FD688869
:101C400030B1012804D040F271113FA000F09AFD9C
:101C5000288930B1022804D04FF4B9713AA000F0BD
:101C600091FD208C20F010002084228CA788208BEE
:101C70002B884FF6FF7920F4E64109EA032343EA73
:101C80000108298922F0200209EA011111436A881A
:101C900009EA02160E43544501D05C453BD1A888A1
:101CA00030B1042804D040F28F1127A000F06AFD63
:101CB000688930B1082804D04FF4C87122A000F020
:101CC00061FDE889B0F5007F05D020B140F29111A7
:101CD0001DA000F057FDA889B0F5807F05D020B188
:101CE0004FF4C97118A000F04DFD698926F08002FB
:101CF00009EA01111143AA8821F0400109EA0216FC
:101D00000E43A98927F4406209EA81011143EA8957
:101D100009EA82070F43A780A4F81880E888208783
:101D20002684BDE8F09F0000002C014000340140F3
:101D30000004004000080040000C0040004C01403E
:101D400000180040004001407372635C73746D338F
:101D500032663130785F74696D2E630070B5044669
:101D600019480D4684421CD0B4F1804F19D0174851
:101D7000844216D01648844213D01648844210D0AC
:101D8000154884420DD0154884420AD01448844234
:101D900007D01448844204D040F2026112A000F03F
:101DA000F1FC082D05D025B140F203610EA000F032
:101DB000E9FC208B4FF6FF7120F4006001EA052159
:101DC0000143218370BD0000002C0140000400404D
:101DD00000080040000C004000340140004C01406D
:101DE00000180040004001407372635C73746D33EF
:101DF00032663130785F74696D2E63002DE9F05FD3
:101E0000DFF838A1DFF838B10D460446504512D04E
:101E1000B4F1804F0FD04B4884420CD04A488442E2
:101E200009D04A48844206D05C4504D040F2C11132
:101E300047A000F0A7FC288870B110280CD02028FB
:101E40000AD0302808D0602806D0702804D04FF47B
:101E5000E1713FA000F096FC688830B1012804D001
:101E600040F2C3113AA000F08DFC288930B102285D
:101E700004D04FF4E27136A000F084FC208C20F4F2
:101E800080702084208CA788A18B2A8821F0730180
:101E900042EA010820F4007128894FF6FF7909EA27
:101EA00000200843698809EA01260643544501D009
:101EB0005C453BD1A88830B1042804D04FF4F071C0
:101EC00023A000F05FFC688930B1082804D040F2FC
:101ED000E1111FA000F056FCE889B0F5007F05D0A5
:101EE00020B14FF4F1711AA000F04CFCA889B0F5B4
:101EF000807F05D020B140F2E31115A000F042FC34
:101F0000698926F4006209EA01211143AA8821F4B3
:101F1000806109EA02260E43A98927F4405209EAA2
:101F200001111143EA8909EA02170F43A780A4F8B7
:101F30001C80E888A0872684BDE8F09F002C014023
:101F4000003401400004004000080040000C004044
:101F50007372635C73746D3332663130785F7469A9
:101F60006D2E630070B5044612480D46844213D0AE
:101F7000B4F1804F10D0104884420DD00F488442F5
:101F80000AD00F48844207D00E48844204D040F261
:101F90001A610DA000F0F6FB082D05D025B140F226
:101FA0001B6109A000F0EEFBA08B20F00800284385
:101FB000A08370BD002C01400004004000080040D8
:101FC000000C0040003401407372635C73746D3325
:101FD00032663130785F74696D2E630070B50446E7
:101FE0001A480D4684422ED0B4F1804F2BD01848A9
:101FF000844228D01748844225D01748844222D0F2
:10200000164884421FD0164884421CD0154884428A
:1020100019D01548844216D01448844213D014486D
:10202000844210D0134884420DD0134884420AD011
:102030001248844207D01248844204D040F6F70187
:1020400010A000F09FFBA58670BD0000002C014091
:102050000004004000080040000C00400034014033
:10206000004C014000500140005401400018004065
:10207000001C00400020004000400140004401409E
:10208000004801407372635C73746D3332663130A3
:10209000785F74696D2E630070B5044611480D4673
:1020A00084421CD0B4F1804F19D00F48844216D01E
:1020B0000E48844213D00E48844210D00D4884420A
:1020C0000DD00D4884420AD00C48844207D00C48F9
:1020D000844204D040F605110AA000F053FB258786
:1020E00070BD0000002C01400004004000080040CA
:1020F000000C004000340140004C0140001800403A
:10210000004001407372635C73746D33326631302A
:10211000785F74696D2E630070B504460C480D46F7
:10212000844213D0B4F1804F10D00A4884420DD0BD
:10213000094884420AD00948844207D008488442AA
:1021400004D040F6131107A000F01CFBA58770BD5A
:10215000002C01400004004000080040000C00403A
:10216000003401407372635C73746D3332663130D6
:10217000785F74696D2E63002DE9F05F444FDFF8DE
:102180001481DFF81491DFF814A1DFF814B1454E83
:102190000D460446B8422ED0B4F1804F2BD04445B2
:1021A00029D04C4527D0544525D05C4523D03E4806
:1021B000844220D0B4421ED03C4884421BD03C48CC
:1021C000844218D03B48844215D03B48844212D008
:1021D0003A4884420FD03A4884420CD0394884426D
:1021E00009D03948844206D03848844203D0E721D8
:1021F00037A000F0C7FA688858B1102809D0202805
:1022000007D0402805D0602803D0E82130A000F096
:10221000B9FAE88848B1B0F5807F06D0B0F5007F04
:1022200003D0E9212AA000F0ADFA2088BC420AD0F0
:10223000B44208D0B4F1804F05D0444503D04C459A
:1022400001D0544503D120F07001688808435C45F3
:1022500006D015498C4203D020F44071E888084329
:102260002080A888A08528882085BC420AD0B44256
:1022700008D01448844205D01348844202D0134841
:10228000844201D1287A20860120A082BDE8F09FF7
:10229000002C01400004004000080040000C0040F9
:1022A000001000400034014000140040004C014088
:1022B000005001400054014000180040001C004044
:1022C000002000400040014000440140004801401F
:1022D0007372635C73746D3332663130785F746926
:1022E0006D2E630070B51D4C40F2255529462046E1
:1022F00000F094F8B8B12946204600F035F82046A1
:1023000000F012F9C1B21648164A3029017004D003
:10231000312904D0322906D103E00A2002E06420EA
:1023200000E0FA20107040F227752946204600F0A0
:1023300075F818B12946204600F016F840F22665D7
:102340002946204600F06AF8002805D02946204694
:10235000BDE8704000F008B870BD000000380140D2
:1023600000000020010000202DE9F047204EDFF89A
:102370008480DFF884900D460446B0420ED0444578
:102380000CD04C450AD01D48844207D01C488442DA
:1023900004D040F20A411BA000F0F4F9A5F5C0609A
:1023A00040F66A1726380ED0A5F5A06025380AD069
:1023B000A5F50060463806D0BD4204D040F20B417E
:1023C00010A000F0DFF9BD420AD1B44208D0444564
:1023D00006D04C4504D040F20F410AA000F0D2F9DB
:1023E000290A01208840C0432080BDE8F087000012
:1023F000003801400044004000480040004C0040CC
:10240000005000407372635C73746D333266313018
:10241000785F75736172742E630000002DE9F047D8
:10242000DFF8D8800026DFF8D890DFF8D8A00C4677
:10243000054640450ED04D450CD055450AD0324892
:10244000854207D03148854204D040F2C13130A0E6
:1024500000F098F9282C32D0A4F5E06040F66A1715
:1024600027381FD0A4F5C06026381BD0A4F5A06083
:10247000253817D0A4F58060243813D0A4F5006067
:1024800046380FD0BC420DD0B4F5587F17D0B4F504
:10249000187F14D0B4F5B07F11D040F2C2311CA027
:1024A00000F070F9BC420AD1454508D04D4506D030
:1024B000554504D040F2C63115A000F063F904F090
:1024C0001F020123C4F3421103FA02F0012910D0C4
:1024D000022910D0A98A4FEA142203FA02F32A88AB
:1024E000014202EA030201D002B101263046BDE8F2
:1024F000F087A989EFE7298AEDE70000003801405D
:102500000044004000480040004C004000500040A3
:102510007372635C73746D3332663130785F7573D8
:102520006172742E6300000010B504460B488442AB
:1025300010D00B4884420DD00A4884420AD00A4881
:10254000844207D00948844204D04FF4197108A08E
:1025500000F018F9A088C0F3080010BD0038014051
:102560000044004000480040004C00400050004043
:102570007372635C73746D3332663130785F757378
:102580006172742E63000000FEE700000FB4054B7B
:1025900010B503A9044A029800F018F810BC5DF8C1
:1025A00014FB0000192800083C00002002E008C8C5
:1025B000121F08C1002AFAD170477047002001E0BD
:1025C00001C1121F002AFBD1704700002DE9FF4F07
:1025D0008BB09A460F460546002606E025280BD00C
:1025E00052460D9990476D1C761C28780028F5D12D
:1025F0000FB03046BDE8F08F0024A04601226049AC
:1026000000E0044315F8013F203B02FA03F00842C2
:10261000F7D128782E2817D115F8010F44F00404BB
:102620002A280ED06FF02F022878A0F13001092956
:102630000AD808EB880102EB410100EB01086D1C90
:10264000F2E757F8048B6D1C287869283ED006DC29
:102650000028CDD063280BD0642804D136E073283D
:1026600010D075284BD052460D999047761C85E0C6
:1026700017F8040B8DF8000000208DF80100E946E2
:10268000012003E057F8049B4FF0FF3061074FF043
:10269000000401D40AE0641C44450DDA8442FADBEC
:1026A00019F804100029F6D106E0641C8442FCDB12
:1026B00019F804100029F8D1264404E019F8010B98
:1026C00052460D999047641EF8D257E001CF4FF063
:1026D0000A0B002802DA40422D2102E0210504D530
:1026E0002B218DF82410012103E0E10705D02021E2
:1026F000F7E70DF1200908910CE00021F9E701CF7F
:102700004FF00A0BF9E75946FDF72EFD01F13002B3
:1027100009F8012D0028F6D1ADEB090000F1200BDE
:10272000600701D44FF00108D84502DDA8EB0B008B
:1027300000E000208046002406E009A85246005D23
:102740000D999047641C761C08988442F5DB04E0E0
:10275000302052460D999047761CB8F10001A8F13F
:102760000108F5DC05E019F8010B52460D99904778
:10277000761CBBF10001ABF1010BF4DC6D1C34E7FE
:10278000092801000A46014601A0FFF7FFFEFEE707
:1027900057726F6E6720706172616D6574657273D8
:1027A0002076616C75653A2066696C65202573201A
:1027B0006F6E206C696E652025640D0A00000000B4
:1027C00010B503464FF47A7402E0204600F003F897
:1027D0005B1EFAD210BD03E00721491EC9B2FCD22C
:1027E000401EF9D27047000070B50A4D041E05DD89
:1027F00081B22846FFF750FC002105E00021284661
:10280000FFF74AFC604281B22846BDE87040FFF7FE
:10281000E5BB00000004004038B504468DF8000018
:1028200069460320ABBE204638BD0000FEF714FC0D
:10283000FDF79AFFFEF73CFBFDF7F6FC00F012F9FE
:1028400000F064F900F022F9FEF760FD384F002136
:102850003846FFF7C3FB00213846FFF75DFCDFF881
:10286000D4A04FF4804B594654465046FEF7CCF95D
:1028700079142046FEF7C8F9FEF74AFA4FF4FA74C5
:1028800021462D48FFF7AAFB2046FFF799FFDFF806
:10289000AC804FF42F69A8F10C0598F8020044466B
:1028A00018B959465046FEF7EFF9A078012803D130
:1028B00059465046FEF7A8F92048FEF759FA207805
:1028C000A0EBC001607809EB4106A0F131010029BD
:1028D00005DD323800EB80008100012005E0C0F109
:1028E000320000EB80008100002000F02DF8002471
:1028F0002888FEF7F9FA641C022CF9DB2888301AC4
:10290000FDF710FC0E49A860884202DC0D498842A0
:1029100004D9FDF710FCFFF767FFBEE7002138463A
:10292000FFF7BAFB00213846FFF758FBB5E7000078
:1029300000040040000C014000080040100000208E
:102940000000C8420000C8C22DE9F041154E0C46F7
:102950000100DFF84880124D70680ED0012720B1C9
:10296000A1B24046FFF7D8FB14E000212846FFF74C
:1029700035FB6420FFF724FFF2E7002730B1002188
:102980004046FFF7C9FB6420FFF71AFFA1B22846B3
:10299000FFF724FB7760BDE8F081000000040040F1
:1029A00000080040040000202D490A2856D2DFE824
:1029B00000F0050D151D252D353D454DC86820F04D
:1029C000FF00C860C86840F0C00046E0C86820F05A
:1029D000FF00C860C86840F0F9003EE0C86820F019
:1029E000FF00C860C86840F0A40036E0C86820F066
:1029F000FF00C860C86840F0B0002EE0C86820F052
:102A0000FF00C860C86840F0990026E0C86820F060
:102A1000FF00C860C86840F092001EE0C86820F05F
:102A2000FF00C860C86840F0820016E0C86820F067
:102A3000FF00C860C86840F0F8000EE0C86820F0E9
:102A4000FF00C860C86840F0800006E0C86820F059
:102A5000FF00C860C86840F09000C8607047000080
:102A60000010014008B54FF4C060FEF7FDF91E20CC
:102A70008DF8000000208DF801008DF80200012083
:102A80008DF803006846FEF79FF908BD30B587B0A2
:102A900040F2E730ADF814004720ADF810000024F4
:102AA000194DADF81640ADF8124004A92846FFF7BD
:102AB00063FB6020ADF800000120ADF80200ADF826
:102AC0000640ADF8084069462846FFF781F808211E
:102AD0002846FFF743F969462846FEF733FF0821E9
:102AE0002846FFF70BF8ADF8064069462846FFF781
:102AF00085F908212846FFF735FA01212846FEF717
:102B00002DFE07B030BD00000004004030B587B096
:102B100040F2E730ADF814004720ADF81000002473
:102B2000144DADF81640ADF8124004A92846FFF741
:102B300023FB01212846FEF7A1FD0122114628466C
:102B4000FEF782FE6020ADF800000120ADF8020023
:102B5000ADF80640ADF8084069462846FEF7F2FE9B
:102B600008212846FEF7CAFF01212846FEF7F6FD98
:102B700007B030BD00080040982B0008000000207E
:102B800040000000AC250008D82B000840000020C1
:102B900000040000BC250008007E000000000000CA
:102BA00001000000000000003232000000000000C0
:102BB0000000000000000000000000000000000015
:102BC00000000000000000003443101001344310E6
:082BD0001001000000000000EC
:0400000508000101ED
:00000001FF
